:020000040800F2
:1000000000000220056D0308156903081D69030837
:10001000256903082D6903083569030800000000FD
:10002000000000000000000000000000D1FA0308FA
:100030003D6903080000000021FD030875EA03087C
:10004000556D0308556D0308556D0308556D03087C
:10005000556D0308556D0308556D0308556D03086C
:10006000556D0308556D0308556D0308556D03085C
:100070004D690308556D030861690308556D030850
:10008000556D0308556D030875690308556D030820
:10009000556D0308556D0308556D0308556D03082C
:1000A000556D0308556D0308556D0308556D03081C
:1000B000556D0308556D0308556D0308556D03080C
:1000C000556D0308556D0308556D0308556D0308FC
:1000D000556D030891690308556D0308A569030868
:1000E000556D0308556D0308556D0308556D0308DC
:1000F000556D0308556D0308556D0308556D0308CC
:10010000556D0308556D0308556D0308556D0308BB
:10011000B9690308556D0308CD690308556D0308D7
:10012000556D0308556D0308E5690308556D03080F
:10013000556D0308556D0308556D0308556D03088B
:10014000556D0308556D0308556D0308556D03087B
:10015000556D0308556D0308F9690308556D0308CB
:10016000556D0308556D0308556D0308556D03085B
:10017000556D0308556D0308556D03080000000018
:08018000556D0308556D0308DD
:1001900010B5054C237833B9044B13B10448AFF3C1
:1001A00000800123237010BD4007002000000000E4
:1001B000A46F040808B5034B1BB103490348AFF310
:1001C000008008BD0000000044070020A46F040860
:1001D00081F0004102E000BF83F0004330B54FEAF8
:1001E00041044FEA430594EA050F08BF90EA020F65
:1001F0001FBF54EA000C55EA020C7FEA645C7FEAF8
:10020000655C00F0E2804FEA5454D4EB5555B8BF1A
:100210006D420CDD2C4480EA020281EA030382EA8B
:10022000000083EA010180EA020281EA0303362D1D
:1002300088BF30BD11F0004F4FEA01314FF4801CF0
:100240004CEA113102D0404261EB410113F0004F02
:100250004FEA03334CEA133302D0524263EB4303B9
:1002600094EA050F00F0A780A4F10104D5F1200E57
:100270000DDB02FA0EFC22FA05F2801841F10001B2
:1002800003FA0EF2801843FA05F359410EE0A5F186
:1002900020050EF1200E012A03FA0EFC28BF4CF0B7
:1002A000020C43FA05F3C01851EBE37101F000456D
:1002B00007D54FF0000EDCF1000C7EEB00006EEB7A
:1002C0000101B1F5801F1BD3B1F5001F0CD3490804
:1002D0005FEA30004FEA3C0C04F101044FEA44525B
:1002E00012F5800F80F09A80BCF1004F08BF5FEAE2
:1002F000500C50F1000041EB045141EA050130BDC2
:100300005FEA4C0C404141EB0101013C28BFB1F5D3
:10031000801FE9D291F0000F04BF01460020B1FA1E
:1003200081F308BF2033A3F10B03B3F120020CDAF1
:100330000C3208DD02F1140CC2F10C0201FA0CF0CF
:1003400021FA02F10CE002F11402D8BFC2F1200C34
:1003500001FA02F120FA0CFCDCBF41EA0C019040EA
:10036000E41AA2BF01EB0451294330BD6FEA040433
:100370001F3C1CDA0C340EDC04F11404C4F120021E
:1003800020FA04F001FA02F340EA030021FA04F330
:1003900045EA030130BDC4F10C04C4F1200220FA87
:1003A00002F001FA04F340EA0300294630BD21FAC5
:1003B00004F0294630BD94F0000F83F4801306BF8B
:1003C00081F480110134013D4EE77FEA645C18BF7F
:1003D0007FEA655C29D094EA050F08BF90EA020F16
:1003E00005D054EA000C04BF1946104630BD91EA0E
:1003F000030F1EBF0021002030BD5FEA545C05D111
:100400004000494128BF41F0004130BD14F580044F
:100410003CBF01F5801130BD01F0004545F0FE41C3
:1004200041F470014FF0000030BD7FEA645C1ABFF8
:10043000194610467FEA655C1CBF0B46024650EA2F
:10044000013406BF52EA033591EA030F41F400215B
:1004500030BD00BF90F0000F04BF0021704730B5E1
:100460004FF4806404F132044FF000054FF00001B6
:1004700050E700BF90F0000F04BF0021704730B577
:100480004FF4806404F1320410F0004548BF40424C
:100490004FF000013EE700BF42004FEAE2014FEAA1
:1004A00031014FEA02701FBF12F07F4393F07F4F7C
:1004B00081F06051704732F07F4208BF704793F07F
:1004C0007F4F04BF41F40021704730B54FF4607492
:1004D00001F0004521F000411CE700BF50EA010295
:1004E00008BF704730B54FF000050AE050EA01023E
:1004F00008BF704730B511F0004502D5404261EBAE
:1005000041014FF4806404F132045FEA915C3FF4EE
:10051000D8AE4FF003025FEADC0C18BF03325FEA8B
:10052000DC0C18BF033202EBDC02C2F1200300FA3C
:1005300003FC20FA02F001FA03FE40EA0E0021FA61
:1005400002F11444BDE600BF4A0011D212F50012B8
:1005500011D20DD56FF47873B3EB62520ED44FEA1B
:10056000C12343F0004343EA505323FA02F070479B
:100570004FF00000704750EA013002D14FF0FF30D9
:1005800070474FF00000704753B94AB9002908BFBF
:1005900000281CBF4FF0FF314FF0FF3000F088B94A
:1005A000ADF1080C6DE904CE00F006F8DDF804E0CA
:1005B000DDE9022304B070472DE9F047089D8E461F
:1005C00004468846002B4AD18A42174662D9B2FABD
:1005D00082F64EB1C6F1200301FA06F820FA03F3C1
:1005E000B74043EA0808B4404FEA174E1FFA87FCA9
:1005F000B8FBFEF1230C0EFB118843EA084301FB14
:100600000CF29A4209D9FB1801F1FF3080F0EA8020
:100610009A4240F2E78002393B449A1AA3B2B2FBF5
:10062000FEF00EFB102243EA024300FB0CFC9C454B
:1006300009D9FB1800F1FF3280F0D6809C4540F2CA
:10064000D3803B44023840EA0140A3EB0C03002175
:100650001DB1F3400022C5E90032BDE8F0878B42AE
:1006600005D90DB1C5E9000100210846F5E7B3FA47
:1006700083F1002946D1734502D3824200F20581FD
:10068000841A6EEB030201209046002DE5D0C5E9E7
:100690000048E2E7002A00F09080B2FA82F6002ECD
:1006A00040F0A4808A1A030C4FEA174E80B2BCB205
:1006B0000121B2FBFEFC0EFB1C2243EA024304FBB9
:1006C0000CF29A4207D9FB180CF1FF3802D29A4279
:1006D00000F2E080C4469B1AB3FBFEF20EFB12331D
:1006E00040EA034302FB04F49C4207D9FB1802F1E1
:1006F000FF3002D29C4200F2CA8002461B1B42EA33
:100700000C40A5E7C1F120068B4022FA06F71F43F3
:100710000EFA01F420FA06F32EFA06FE4FEA174904
:10072000234300FA01F81FFA87FCBEFBF9F01C0C0A
:1007300009FB10EE44EA0E4400FB0CFEA64502FA4B
:1007400001F209D93C1900F1FF3A80F09C80A645DE
:1007500040F2998002383C44A4EB0E041FFA83FE59
:10076000B4FBF9F309FB13444EEA044403FB0CFC0D
:10077000A44508D93C1903F1FF3E80F08280A445CE
:100780007FD9023B3C4443EA0040A4EB0C04A0FBAD
:1007900002EC64457346E14662D35FD05DB1B8EBCD
:1007A000030264EB090404FA06F622FA01F31E437D
:1007B000CC40C5E9006400214FE7B1FBF2FC010C1D
:1007C00041EA0E4180B240EA01423B4638463C468F
:1007D000B846BE462026B1FBF7F1A2EB080241EA7B
:1007E0000C4166E7014618E710462CE7C6F12002E7
:1007F0002EFA02F3B740B14020FA02F24FEA174E48
:100800000A43B3FBFEF8BCB20EFB1833110C41EAED
:10081000034108FB04F9B04089454FEA104380B218
:100820003ED9791808F1FF3C01D289451FD8A1EBC8
:100830000901B1FBFEF909FB04F80EFB191192B294
:1008400042EA0142424529D2BA1809F1FF31C4D225
:100850004245C2D2A9F102013A44BEE7F0459DD219
:10086000BEEB02036CEB070C0138E14696E7A7EB01
:1008700009094944A8F1020CB1FBFEF909FB04F88F
:10088000DBE773467FE7504666E70846FDE63B44F4
:10089000023A33E7ACF1020C3B441CE749469CE7C3
:1008A000A1EB0901C446B1FBFEF909FB04F8C4E75A
:1008B000704700BF10F8012B11F8013B012A28BF37
:1008C0009A42F7D0D01A70470000000000000000E4
:1008D00001F0FF01102A2BDB10F0070F08D010F8F1
:1008E000013B013A8B422DD010F0070F42B3F6D1F5
:1008F000F0B441EA012141EA014122F007047FF00E
:1009000000070023F0E80256083C85EA010586EA64
:10091000010685FA47F5A3FA87F586FA47F6A5FAA0
:1009200087F68EB9EED1F0BC01F0FF0102F00702AC
:1009300032B110F8013B013A83EA010313B1F8D157
:100940000020704701387047002D06BF3546033838
:10095000073815F0010F07D1013015F4807F02BF71
:10096000013015F4C03F0130F0BC0138704700BFC2
:10097000034613F8012B002AFBD1181A01387047DF
:1009800070B54FF0FF0C4CF4E06C1CEA11541DBF25
:100990001CEA135594EA0C0F95EA0C0F00F0DEF8F0
:1009A0002C4481EA030621EA4C5123EA4C5350EAD5
:1009B000013518BF52EA033541F4801143F4801326
:1009C00038D0A0FB02CE4FF00005E1FB02E506F0B7
:1009D0000042E0FB03E54FF00006E1FB03569CF00C
:1009E000000F18BF4EF0010EA4F1FF04B6F5007F12
:1009F00064F5407404D25FEA4E0E6D4146EB060684
:100A000042EAC62141EA55514FEAC52040EA5E500C
:100A10004FEACE2EB4F1FD0C88BFBCF5E06F1ED8B6
:100A2000BEF1004F08BF5FEA500E50F1000041EBED
:100A3000045170BD06F0004646EA010140EA02009A
:100A400081EA0301B4EB5C04C2BFD4EB0C0541EABC
:100A5000045170BD41F480114FF0000E013C00F3D1
:100A6000AB8014F1360FDEBF002001F0004170BDF5
:100A7000C4F10004203C35DA0C341BDC04F114040E
:100A8000C4F1200500FA05F320FA04F001FA05F29A
:100A900040EA020001F0004221F0004110EBD37067
:100AA00021FA04F642EB06015EEA430E08BF20EA93
:100AB000D37070BDC4F10C04C4F1200500FA04F336
:100AC00020FA05F001FA04F240EA020001F00041C8
:100AD00010EBD37041F100015EEA430E08BF20EA3B
:100AE000D37070BDC4F1200500FA05F24EEA020E83
:100AF00020FA04F301FA05F243EA020321FA04F0B2
:100B000001F0004121FA04F220EA020000EBD37068
:100B10005EEA430E08BF20EAD37070BD94F0000F68
:100B20000FD101F00046400041EB010111F4801F9C
:100B300008BF013CF7D041EA060195F0000F18BF4D
:100B4000704703F00046520043EB030313F4801F89
:100B500008BF013DF7D043EA0603704794EA0C0F43
:100B60000CEA135518BF95EA0C0F0CD050EA410659
:100B700018BF52EA4306D1D181EA030101F00041D6
:100B80004FF0000070BD50EA410606BF10461946FE
:100B900052EA430619D094EA0C0F02D150EA01360A
:100BA00013D195EA0C0F05D152EA03361CBF10464B
:100BB00019460AD181EA030101F0004141F0FE41EA
:100BC00041F470014FF0000070BD41F0FE4141F46E
:100BD000780170BD70B54FF0FF0C4CF4E06C1CEA6E
:100BE00011541DBF1CEA135594EA0C0F95EA0C0F23
:100BF00000F0A7F8A4EB050481EA030E52EA0335DE
:100C00004FEA013100F088804FEA03334FF08055FE
:100C100045EA131343EA12634FEA022245EA11152B
:100C200045EA10654FEA00260EF000419D4208BFDC
:100C3000964244F1FD0404F5407402D25B084FEA89
:100C40003202B61A65EB03055B084FEA32024FF435
:100C500080104FF4002CB6EB020E75EB030E22BF92
:100C6000B61A754640EA0C005B084FEA3202B6EB52
:100C7000020E75EB030E22BFB61A754640EA5C0001
:100C80005B084FEA3202B6EB020E75EB030E22BF91
:100C9000B61A754640EA9C005B084FEA3202B6EB92
:100CA000020E75EB030E22BFB61A754640EADC0051
:100CB00055EA060E18D04FEA051545EA16754FEAB3
:100CC00006164FEAC30343EA52734FEAC2025FEAD1
:100CD0001C1CC0D111F4801F0BD141EA00014FF060
:100CE00000004FF0004CB6E711F4801F04BF014331
:100CF0000020B4F1FD0C88BFBCF5E06F3FF6AFAE4D
:100D0000B5EB030C04BFB6EB020C5FEA500C50F1DC
:100D1000000041EB045170BD0EF0004E4EEA11315F
:100D200014EB5C04C2BFD4EB0C0541EA045170BD66
:100D300041F480114FF0000E013C90E645EA060EAA
:100D40008DE60CEA135594EA0C0F08BF95EA0C0FD8
:100D50003FF43BAF94EA0C0F0AD150EA01347FF420
:100D600034AF95EA0C0F7FF425AF104619462CE7F7
:100D700095EA0C0F06D152EA03353FF4FDAE10465A
:100D8000194622E750EA410618BF52EA43067FF4AB
:100D9000C5AE50EA41047FF40DAF52EA43057FF43B
:100DA000EBAE12E74FF0FF3C06E000BF4FF0010C46
:100DB00002E000BF4FF0010C4DF804CD4FEA410CAA
:100DC0007FEA6C5C4FEA430C18BF7FEA6C5C1BD077
:100DD00001B050EA410C0CBF52EA430C91EA030FF8
:100DE00002BF90EA020F0020704710F1000F91EA55
:100DF000030F58BF994208BF90422CBFD8176FEA23
:100E0000E37040F0010070474FEA410C7FEA6C5CF0
:100E100002D150EA013C07D14FEA430C7FEA6C5CF7
:100E2000D6D152EA033CD3D05DF8040B704700BF23
:100E30008446104662468C461946634600E000BF71
:100E400001B5FFF7B7FF002848BF10F1000F01BD43
:100E50004DF808EDFFF7F4FF0CBF012000205DF80E
:100E600008FB00BF4DF808EDFFF7EAFF34BF012093
:100E700000205DF808FB00BF4DF808EDFFF7E0FF2C
:100E800094BF012000205DF808FB00BF4DF808ED7D
:100E9000FFF7CEFF94BF012000205DF808FB00BFE4
:100EA0004DF808EDFFF7C4FF34BF012000205DF8C6
:100EB00008FB00BF4FEA410C7FEA6C5C02D150EAAC
:100EC000013C0AD14FEA430C7FEA6C5C02D152EA42
:100ED000033C02D14FF0000070474FF00100704713
:100EE0004FEA410212F5001215D211D56FF4787352
:100EF000B3EB625212D94FEAC12343F0004343EAF5
:100F0000505311F0004F23FA02F018BF40427047CF
:100F10004FF00000704750EA013005D111F0004059
:100F200008BF6FF0004070474FF00000704700BFEF
:100F300080B582B000AF786039607B68002B02D04A
:100F40003B68012B02D86FF0010338E03B689BB28D
:100F50000421184600F07EFA02467B681A617B681D
:100F60001B69002B0DD100237A6853607A68936067
:100F70007B680022DA607B6800221A756FF0040338
:100F80001DE07B6800229A607B6800225A607B68C3
:100F90003A68DA607B68DB68002B09D07B68DA6826
:100FA0007B68DB68013B1340002B01D1012300E08B
:100FB000002303F00103DAB27B681A750023184698
:100FC0000837BD4680BD80B584B000AF78607B68CF
:100FD000002B07D07B68DB68012B03D97B681B697A
:100FE000002B01D1002308E03EF03EFE786800F0BF
:100FF00008F8F8603EF06AFEFB6818461037BD46F8
:1010000080BD80B487B000AF78607B68002B03D0D0
:101010007B68DB68012B01D8002324E07B685B68D8
:101020003B617B689B68FB607B68DB68BB607B68BF
:101030001B7D002B09D03A69FB68D21ABB681A44A1
:10104000BB68013B13407B610CE03A69FB68D21A34
:10105000BB681344BA68B3FBF2F2B96801FB02F251
:101060009B1A7B617B6918461C37BD465DF8047B83
:10107000704790B583B000AF78607B68002B03D0D9
:101080007B68DB68012B01D8002307E07B68DC6804
:101090007868FFF7B6FF0346E31A013B18460C37A2
:1010A000BD4690BD80B586B000AFF860B9607A608B
:1010B000FB70FB68002B0ED0BB68002B0BD07B684D
:1010C0001B68002B07D0FB681B69002B03D0FB6853
:1010D000DB68012B02D86FF001036CE03EF0C4FD29
:1010E000F868FFF7C6FF78617B681B687A699A42E7
:1010F0000BD2FB78002B03D07B687A691A6004E07E
:101100003EF0E4FD6FF0040355E07B681B68002BA4
:1011100003D13EF0DBFD00234DE0FB68DA68FB689D
:101120005B68D31A3B617B681B683A699A420BD3B0
:10113000FB681A69FB685B68D0187B681B681A46F5
:10114000B96840F059FA15E0FB681A69FB685B68FA
:1011500013443A69B968184640F04EFAFB681869BA
:10116000BA683B69D1187B681A683B69D31A1A467A
:1011700040F042FAFB681B7D002B0BD0FB685A68DD
:101180007B681B681A44FB68DB68013B1A40FB68FC
:101190005A600DE0FB685A687B681B681344FA6864
:1011A000D268B3FBF2F101FB02F29A1AFB685A60B3
:1011B0003EF08CFD002318461837BD4680BD80B533
:1011C00086B000AFF860B9607A60FB70FB68002BF6
:1011D0000ED0BB68002B0BD07B681B68002B07D0A0
:1011E000FB681B69002B03D0FB68DB68012B02D86E
:1011F0006FF001036CE03EF037FDF868FFF701FF88
:1012000078617B681B687A699A420BD2FB78002B65
:1012100003D07B687A691A6004E03EF057FD6FF0F6
:10122000090355E07B681B68002B03D13EF04EFD9F
:1012300000234DE0FB68DA68FB689B68D31A3B61CA
:101240007B681B683A699A420BD3FB681A69FB6892
:101250009B68D1187B681B681A46B86840F0CCF9C7
:1012600015E0FB681A69FB689B6813443A691946E4
:10127000B86840F0C1F9BA683B69D018FB681969D1
:101280007B681A683B69D31A1A4640F0B5F9FB68C7
:101290001B7D002B0BD0FB689A687B681B681A4487
:1012A000FB68DB68013B1A40FB689A600DE0FB6855
:1012B0009A687B681B681344FA68D268B3FBF2F142
:1012C00001FB02F29A1AFB689A603EF0FFFC0023D1
:1012D00018461837BD4680BD80B58CB000AFF860A9
:1012E000B9607A60FB70FB68002B0ED0BB68002BE6
:1012F0000BD07B681B68002B07D0FB681B69002B99
:1013000003D0FB68DB68012B02D86FF0010384E097
:10131000EFF311824FF0500383F31188BFF36F8F07
:10132000BFF34F8F3A62FB613B6AFB62F868FFF7DD
:10133000A0FEB8627B681B68BA6A9A420FD2FB783B
:10134000002B03D07B68BA6A1A6008E0FB6ABB61B5
:10135000BB6983F3118800BF6FF004035DE07B6815
:101360001B68002B07D1FB6A7B617B6983F31188C3
:1013700000BF002351E0FB68DA68FB685B68D31AA2
:101380007B627B681B687A6A9A420BD3FB681A6996
:10139000FB685B68D0187B681B681A46B96840F028
:1013A0002BF915E0FB681A69FB685B6813447A6ADD
:1013B000B968184640F020F9FB681869BA687B6A7A
:1013C000D1187B681A687B6AD31A1A4640F014F960
:1013D000FB681B7D002B0BD0FB685A687B681B6881
:1013E0001A44FB68DB68013B1A40FB685A600DE059
:1013F000FB685A687B681B681344FA68D268B3FBC1
:10140000F2F101FB02F29A1AFB685A60FB6A3B6137
:101410003B6983F3118800BF002318463037BD466F
:1014200080BD80B582B000AF78607B68002B02D1B0
:101430006FF001030AE03EF017FC7B6800229A601F
:101440007B6800225A603EF041FC002318460837B2
:10145000BD4680BD80B487B000AF03460A46FB801E
:1014600013467B71254B1B889BB21A46244B1344B1
:101470003B610023FB757B79002B13D07A793B69A4
:10148000B3FBF2F101FB02F29B1A002B0AD07A792E
:101490003B69B3FBF2F101FB02F29B1ADBB27A79F2
:1014A000D31AFB75154B1B889BB21A46FB881A444E
:1014B000FB7D1344B3F5005F01DD002318E0FB7DE5
:1014C0009AB20E4B1B889BB213449AB20B4B1A80F4
:1014D0000A4B1B889BB21A46094B1344FB60074B0F
:1014E0001B889AB2FB8813449AB2044B1A80FB689B
:1014F00018461C37BD465DF8047B70475C2700200A
:101500005C07002080B400AF054B1B889BB2C3F57D
:1015100000539BB21846BD465DF8047B704700BF80
:101520005C27002080B584B002AF786039607B68AA
:10153000002B02D03B68002B08D1094B0093094BCC
:1015400041220949032004F0A3FF06E07B68002242
:101550005A603968786800F009F80837BD4680BDE0
:101560001C700408C06F0408C86F040880B588B0F8
:1015700004AF786039607B68002B3ED03B68002B5D
:101580003BD07B685B68002B03D07B685B681B6883
:1015900000E01C4B3A681268029201931A4B0093C8
:1015A0001A4B4F221A49042004F072FF7B685B68D3
:1015B000FB600AE0FB689B68002B03D0FB689B681C
:1015C00078689847FB681B69FB60FB68002B08D0B4
:1015D000FA683B689A4204D03B681B69FA689A42F1
:1015E000E8D17B683A685A603B685B68002B05D09D
:1015F0003B685B687868984700E000BF1037BD46DD
:1016000080BD00BF3C70040844700408C06F04082B
:10161000C86F040880B58AB004AF786039603B6851
:101620001B680193264B0093264B69222649042010
:1016300004F02EFF7B685B687B613BE07B69DB68C5
:10164000002B34D000233B6127E07B69DA683B69DB
:10165000DB001344FB60FB681A683B681B689A4216
:1016600018D1FB685B683968786898470346FB7255
:10167000FB7A002B1AD03B681B687A6912680292C9
:101680000193124B00930F4B75220F49032004F076
:10169000FFFE12E03B6901333B617B69DA683B691D
:1016A000DB0013445B68002BCFD100E000BF7B69F7
:1016B0001B697B617B69002BC0D11837BD4680BD9B
:1016C00074700408C06F0408C86F040890700408A0
:1016D00080B582B000AF78607B681A687B689B88B1
:1016E0001946104637F056FE0346012B0CBF012366
:1016F0000023DBB218460837BD4680BD80B584B0F4
:1017000000AF78607B689B68FB60FB68002B04D1AE
:10171000084909483FF0C0FD09E0FB681B681A460C
:10172000044906483FF0B8FDFB6800221A741037E0
:10173000BD4680BD507104085471040874710408DA
:1017400080B582B000AF786039603B681B68002BC1
:1017500005D105497868FFF709FF012300E0002360
:1017600018460837BD4680BD208D040880B584B07A
:1017700000AF78607B689B68FB60FB68002B04D13E
:101780000A490B483FF088FD0CE0FB681B681A46CD
:10179000064908483FF080FDFB685B891946F868F8
:1017A00000F0FEF91037BD4680BD00BF507104083F
:1017B00054710408A071040880B584B000AF78604B
:1017C00039607B689B68FB603B681B68022B15D106
:1017D000FB685B681846FFF77BFF03461A46FB6809
:1017E0001B7A9A4204D108497868FFF7BFFE03E0EC
:1017F00006497868FFF7BAFE012301E000BF002325
:1018000018461037BD4680BD348D04080C8D040881
:1018100080B584B000AF78607B689B68FB60FB6834
:10182000002B04D10A490B483FF036FD0CE0FB6861
:101830001B681A46064908483FF02EFDFB689B8945
:101840001946F86800F0ACF91037BD4680BD00BFFE
:101850005071040854710408CC71040880B584B038
:1018600000AF786039607B689B68FB603B681B68F1
:10187000012B04D0022B11D000BF002313E0FB6822
:101880001B7C0133DAB2FB681A74F86800F09AF92D
:1018900007497868FFF76AFE012304E00549786884
:1018A000FFF764FE012318461037BD4680BD00BF18
:1018B000488D0408988D040880B584B000AF786026
:1018C0007B689B68FB60FB68002B04D10A490B48CE
:1018D0003FF0E2FC0CE0FB681B681A46064908482A
:1018E0003FF0DAFCFB68DB891946F86800F058F92C
:1018F0001037BD4680BD00BF507104085471040804
:101900000472040880B584B000AF786039607B68E9
:101910009B68FB603B681B68002B02D0022B09D040
:101920002FE0F86800F04EF91A497868FFF71EFEBC
:1019300001232BE07B689B681B7C032B12D0032BBD
:1019400016DC012B02D0022B06D011E01249786878
:10195000FFF70CFE012319E010497868FFF706FE37
:10196000012313E00E497868FFF700FE01230DE024
:101970000C490D483FF090FC0C497868FFF7F6FDE4
:1019800003E008490A483FF087FC00231846103757
:10199000BD4680BD208D04085C8D0408708D040850
:1019A000848D040850710408407204080C8D0408EA
:1019B0005872040880B584B000AF786039607B68E5
:1019C0009B68FB60FB68002B01D1002320E03B6893
:1019D0001B68012B12D0022B19D1FB685B6A002B0C
:1019E00004D0FB685B6A0421F8689847FB68DB89D0
:1019F0001946F86800F0D4F8012309E0F86800F00F
:101A0000E1F805497868FFF7B1FD012300E0002304
:101A100018461037BD4680BD0C8D040880B584B0D3
:101A200000AF78607B689B68FB607B689B681B6885
:101A30001A460A490A483FF02FFCFB685B6A002BF4
:101A400004D0FB685B6A0021F8689847054978680C
:101A5000FFF78CFD00BF1037BD4680BD50710408F4
:101A60007C7204080C8D040880B584B000AF7860E7
:101A70007B689B68FB607B689B681B681A460A4909
:101A80000A483FF009FCFB685B6A002B04D0FB6846
:101A90005B6A0121F868984705497868FFF766FD99
:101AA00000BF1037BD4680BD50710408A8720408FD
:101AB0000C8D040880B584B000AF78607B689B68AB
:101AC000FB607B689B681B681A460A490A483FF01E
:101AD000E3FBFB685B6A002B04D0FB685B6A0221B6
:101AE000F868984705497868FFF740FD00BF103750
:101AF000BD4680BD50710408D47204080C8D0408E2
:101B000080B584B000AF78607B689B68FB60FB6841
:101B1000002B14D0FB681B681A460B490B483FF09A
:101B2000BBFBFB685B6A002B04D0FB685B6A03218C
:101B3000F868984706497868FFF718FD00E000BF8D
:101B40001037BD4680BD00BF507104080073040803
:101B5000AC8D040880B584B000AF78607B689B686A
:101B6000FB607B689B681B681A460B490B483FF07B
:101B700093FBFB685B6A002B04D0FB685B6A042163
:101B8000F8689847FB68DB891946F86800F008F8A0
:101B900000BF1037BD4680BD50710408287304088B
:101BA00080B483B000AF7860396072B600BF7B68E4
:101BB0003A685A6162B600BF00BF0C37BD465DF897
:101BC000047B704780B483B000AF78607B680022EC
:101BD0005A6100BF0C37BD465DF8047B70470000BA
:101BE00080B582B000AF786039603B681A687B6866
:101BF0001A603B685A687B685A603B681A7A7B684F
:101C00001A723B685A897B685A813B689A897B685B
:101C10009A813B68DA897B68DA813B681A697B685C
:101C20005A623B685A697B689A627B687A681A6272
:101C30007B681A687B689A617B6818331A49184672
:101C4000FFF770FC194B1B78052293420BD2174B00
:101C50001B785A1CD1B2154A11701946144A7B6878
:101C600042F8213003E0134913483FF015FB7B682D
:101C70005B681846FFF72CFD03461A467B681B7A03
:101C80009A4214BF01230023DAB27B685A747B683E
:101C90001A687B685B7CDBB2064908483FF0FCFAB7
:101CA00000BF0837BD4680BD0C8D04087427002096
:101CB00060270020507104085C730408A4730408B2
:101CC00080B584B000AF0023FB731FE0FB7B144A98
:101CD00052F82330BB60BB685B69002B13D0BB6834
:101CE0005B695A1EBB685A61BB685B69002B0AD1ED
:101CF00002233B6000237B60BB6818333A461146E1
:101D00001846FFF787FCFB7B0133FB73054B1B7801
:101D1000FA7B9A42DAD300BF00BF1037BD4680BDC0
:101D2000602700207427002080B58AB002AF00230E
:101D3000FB7740E0FB7F254A52F82330BB61BB694B
:101D400018337B61BB695B681846FFF7C1FC03462B
:101D5000FB74BB695B7CDBB2FA7C9A4228D0BB691E
:101D60001A68BB695B7CDBB21946FB7C00930B46AF
:101D7000174918483FF090FABB691B7AFA7C9A42DF
:101D80000AD10023BB600023FB6007F1080319465A
:101D90007869FFF73FFC08E001233B6000237B608C
:101DA0003B4619467869FFF735FCBB69FA7C5A74E3
:101DB000FB7F0133FB77084B1B78FA7F9A42B9D33C
:101DC00000BF00BF2037BD4680BD00BF6027002098
:101DD00050710408E87304087427002080B500AF30
:101DE000112002F071FC782038F052F8362002F011
:101DF0006BFC002002F054FC3A2002F065FC052048
:101E000002F04EFCB22002F05FFC0C2002F048FC15
:101E10000C2002F045FC002002F042FC332002F0CE
:101E20003FFC332002F03CFCB72002F04DFC352093
:101E300002F036FCBB2002F047FC322002F030FCFE
:101E4000C02002F041FC0C2002F02AFCC22002F06B
:101E50003BFC012002F024FCC32002F035FC1020E2
:101E600002F01EFCC42002F02FFC202002F018FC1F
:101E7000C62002F029FC0F2002F012FCD02002F054
:101E800023FCA42002F00CFCA12002F009FCE020BD
:101E900002F01AFCD02002F003FC002002F000FC4B
:101EA000022002F0FDFB072002F0FAFB0A2002F0FC
:101EB000F7FB282002F0F4FB322002F0F1FB442073
:101EC00002F0EEFB422002F0EBFB062002F0E8FB02
:101ED0000E2002F0E5FB122002F0E2FB142002F0DB
:101EE000DFFB172002F0DCFBE12002F0EDFBD0204D
:101EF00002F0D6FB002002F0D3FB022002F0D0FB60
:101F0000072002F0CDFB0A2002F0CAFB282002F0D5
:101F1000C7FB312002F0C4FB542002F0C1FB472074
:101F200002F0BEFB0E2002F0BBFB1C2002F0B8FB4F
:101F3000172002F0B5FB1B2002F0B2FB1E2002F0BE
:101F4000AFFB2A2002F0C0FB002002F0A9FB00201A
:101F500002F0A6FB002002F0A3FBEF2002F0A0FBA2
:101F60002B2002F0B1FB002002F09AFB002002F0CF
:101F700097FB012002F094FB3F2002F091FB292007
:101F800002F0A2FB00BF80BD80B500AFCF2002F001
:101F90009BFB002002F084FBC12002F081FB30207B
:101FA00002F07EFBED2002F08FFB642002F078FB54
:101FB000032002F075FB122002F072FB812002F078
:101FC0006FFBE82002F080FB852002F069FB102007
:101FD00002F066FB7A2002F063FBCB2002F074FB78
:101FE000392002F05DFB2C2002F05AFB002002F0A9
:101FF00057FB342002F054FB022002F051FBF72083
:1020000002F062FB202002F04BFBEA2002F05CFBB6
:10201000002002F045FB002002F042FBC02002F04D
:1020200053FB1B2002F03CFBC12002F04DFB0120C2
:1020300002F036FBC52002F047FB302002F030FBF7
:10204000302002F02DFBC72002F03EFBB72002F04B
:1020500027FB362002F038FB482002F021FB3A2013
:1020600002F032FB552002F01BFBB12002F02CFBEA
:10207000002002F015FB1A2002F012FBB62002F03D
:1020800023FB0A2002F00CFBA22002F009FBF22045
:1020900002F01AFB002002F003FB262002F014FBE2
:1020A000012002F0FDFAE02002F00EFB0F2002F00A
:1020B000F7FA2A2002F0F4FA282002F0F1FA0820B8
:1020C00002F0EEFA0E2002F0EBFA082002F0E8FA35
:1020D000542002F0E5FAA92002F0E2FA432002F0CF
:1020E000DFFA0A2002F0DCFA0F2002F0D9FA002011
:1020F00002F0D6FA002002F0D3FA002002F0D0FA63
:10210000002002F0CDFAE12002F0DEFA002002F019
:10211000C7FA152002F0C4FA172002F0C1FA07200E
:1021200002F0BEFA112002F0BBFA062002F0B8FA63
:102130002B2002F0B5FA562002F0B2FA3C2002F051
:10214000AFFA052002F0ACFA102002F0A9FA0F2035
:1021500002F0A6FA3F2002F0A3FA3F2002F0A0FA14
:102160000F2002F09DFA2B2002F0AEFA002002F0C0
:1021700097FA002002F094FA012002F091FA3F2031
:1021800002F08EFA2A2002F09FFA002002F088FA6C
:10219000002002F085FA002002F082FAEF2002F01F
:1021A0007FFA112002F090FA782037F071FE292092
:1021B00002F08AFA00BF80BD80B500AFED2002F0CA
:1021C00083FA012002F06CFAFE2002F069FAEE2098
:1021D00002F07AFADE2002F063FA212002F060FABF
:1021E000F12002F071FA012002F05AFADF2002F029
:1021F0006BFA102002F054FAC42002F065FA8F2026
:1022000002F04EFAC62002F05FFA002002F048FA0F
:10221000E22002F045FAE22002F042FAE22002F067
:102220003FFABF2002F050FAAA2002F039FAB0209B
:1022300002F04AFA0D2002F033FA002002F030FAE0
:102240000D2002F02DFA002002F02AFA112002F0EF
:1022500027FA002002F024FA192002F021FA0020C7
:1022600002F01EFA212002F01BFA002002F018FAF8
:102270002D2002F015FA002002F012FA3D2002F0A3
:102280000FFA002002F00CFA5D2002F009FA00209B
:1022900002F006FA5D2002F003FA002002F000FAD4
:1022A000B12002F011FA802002F0FAF9002002F0C9
:1022B000F7F98B2002F0F4F9002002F0F1F99620F2
:1022C00002F0EEF9002002F0EBF9B22002F0FCF986
:1022D000002002F0E5F9002002F0E2F9022002F00D
:1022E000DFF9002002F0DCF9032002F0D9F9002028
:1022F00002F0D6F9B32002F0E7F9002002F0D0F99D
:10230000002002F0CDF9002002F0CAF9002002F00E
:10231000C7F9002002F0C4F9002002F0C1F9002042
:1023200002F0BEF9002002F0BBF9002002F0B8F97B
:10233000002002F0B5F9002002F0B2F9002002F00E
:10234000AFF9002002F0ACF9002002F0A9F900205A
:1023500002F0A6F9002002F0A3F9002002F0A0F993
:10236000002002F09DF9002002F09AF9002002F00E
:1023700097F9002002F094F9002002F091F9002072
:1023800002F08EF9002002F08BF9B42002F09CF9E3
:102390008B2002F085F9002002F082F9962002F0ED
:1023A0007FF9002002F07CF9A12002F079F90020E9
:1023B00002F076F9B52002F087F9022002F070F9F8
:1023C000002002F06DF9032002F06AF9002002F00B
:1023D00067F9042002F064F9002002F061F9B620E8
:1023E00002F072F9002002F05BF9002002F058F9C7
:1023F000B72002F069F9002002F052F9002002F043
:102400004FF93F2002F04CF9002002F049F95E201C
:1024100002F046F9002002F043F9642002F040F98E
:10242000002002F03DF98C2002F03AF9002002F081
:1024300037F9AC2002F034F9002002F031F9DC2049
:1024400002F02EF9002002F02BF9702002F028F99A
:10245000002002F025F9902002F022F9002002F07D
:102460001FF9EB2002F01CF9002002F019F9DC2022
:1024700002F016F9002002F013F9B82002F024F956
:10248000002002F00DF9002002F00AF9002002F00D
:1024900007F9002002F004F9002002F001F9002001
:1024A00002F0FEF8002002F0FBF8002002F0F8F83D
:1024B000BA2002F009F9242002F0F2F8002002F01C
:1024C000EFF8002002F0ECF8002002F0E9F8C1205B
:1024D00002F0FAF8202002F0E3F8002002F0E0F821
:1024E000542002F0DDF8002002F0DAF8FF2002F0BC
:1024F000D7F8002002F0D4F8C22002F0E5F80A2054
:1025000002F0CEF8002002F0CBF8042002F0C8F868
:10251000002002F0C5F8C32002F0D6F83C2002F0FB
:10252000BFF8002002F0BCF83A2002F0B9F8002011
:1025300002F0B6F8392002F0B3F8002002F0B0F84B
:10254000372002F0ADF8002002F0AAF83C2002F09B
:10255000A7F8002002F0A4F8362002F0A1F800202D
:1025600002F09EF8322002F09BF8002002F098F86A
:102570002F2002F095F8002002F092F82C2002F0B3
:102580008FF8002002F08CF8292002F089F8002052
:1025900002F086F8262002F083F8002002F080F88E
:1025A000242002F07DF8002002F07AF8242002F0C6
:1025B00077F8002002F074F8232002F071F8002070
:1025C00002F06EF83C2002F06BF8002002F068F890
:1025D000362002F065F8002002F062F8322002F0A6
:1025E0005FF8002002F05CF82F2002F059F800207C
:1025F00002F056F82C2002F053F8002002F050F8B8
:10260000292002F04DF8002002F04AF8262002F0BE
:1026100047F8002002F044F8242002F041F800209E
:1026200002F03EF8242002F03BF8002002F038F8D7
:10263000232002F035F8002002F032F8C42002F026
:1026400043F8622002F02CF8002002F029F805205F
:1026500002F026F8002002F023F8842002F020F88F
:10266000002002F01DF8F02002F01AF8002002F01D
:1026700017F8182002F014F8002002F011F8A42036
:1026800002F00EF8002002F00BF8182002F008F813
:10269000002002F005F8502002F002F8002001F0BE
:1026A000FFFF0C2001F0FCFF002001F0F9FF1720D4
:1026B00001F0F6FF002001F0F3FF952001F0F0FF9C
:1026C000002001F0EDFFF32001F0EAFF002001F00F
:1026D000E7FFE62001F0E4FF002001F0E1FFC52064
:1026E00001F0F2FF322001F0DBFF002001F0D8FF03
:1026F000442001F0D5FF002001F0D2FF652001F059
:10270000CFFF002001F0CCFF762001F0C9FF0020B0
:1027100001F0C6FF882001F0C3FF002001F0C0FFD8
:10272000C62001F0D1FF202001F0BAFF002001F007
:10273000B7FF172001F0B4FF002001F0B1FF012026
:1027400001F0AEFF002001F0ABFFC72001F0BCFF9D
:10275000002001F0A5FF002001F0A2FF002001F001
:102760009FFF002001F09CFFC82001F0ADFF00207A
:1027700001F096FF002001F093FF002001F090FF90
:10278000002001F08DFFC92001F09EFF002001F024
:1027900087FF002001F084FF002001F081FF00206E
:1027A00001F07EFF002001F07BFF002001F078FFA8
:1027B000002001F075FF002001F072FF002001F001
:1027C0006FFF002001F06CFF002001F069FF002086
:1027D00001F066FF002001F063FF002001F060FFC0
:1027E000002001F05DFF002001F05AFFE02001F021
:1027F0006BFF162001F054FF002001F051FF1C2058
:1028000001F04EFF002001F04BFF212001F048FFB6
:10281000002001F045FF362001F042FF002001F0CA
:102820003FFF462001F03CFF002001F039FF52201D
:1028300001F036FF002001F033FF642001F030FF8B
:10284000002001F02DFF7A2001F02AFF002001F086
:1028500027FF8B2001F024FF002001F021FF9920A9
:1028600001F01EFF002001F01BFFA82001F018FF5F
:10287000002001F015FFB92001F012FF002001F047
:102880000FFFC42001F00CFF002001F009FFCA2057
:1028900001F006FF002001F003FFD22001F000FF4D
:1028A000002001F0FDFED92001F0FAFE002001F029
:1028B000F7FEE02001F0F4FE002001F0F1FEF3202D
:1028C00001F0EEFE002001F0EBFEE12001F0FCFE45
:1028D000162001F0E5FE002001F0E2FE1C2001F0D0
:1028E000DFFE002001F0DCFE222001F0D9FE0020F6
:1028F00001F0D6FE362001F0D3FE002001F0D0FE1C
:10290000452001F0CDFE002001F0CAFE522001F06A
:10291000C7FE002001F0C4FE642001F0C1FE0020CB
:1029200001F0BEFE7A2001F0BBFE002001F0B8FEEF
:102930008B2001F0B5FE002001F0B2FE992001F0DD
:10294000AFFE002001F0ACFEA82001F0A9FE00209F
:1029500001F0A6FEB92001F0A3FE002001F0A0FEC8
:10296000C42001F09DFE002001F09AFECA2001F073
:1029700097FE002001F094FED22001F091FE00208D
:1029800001F08EFED82001F08BFE002001F088FEC1
:10299000E02001F085FE002001F082FEF32001F02E
:1029A0007FFE002001F07CFEE22001F08DFE05207C
:1029B00001F076FE002001F073FE0B2001F070FEA6
:1029C000002001F06DFE1B2001F06AFE002001F0E6
:1029D00067FE342001F064FE002001F061FE442017
:1029E00001F05EFE002001F05BFE4F2001F058FE7A
:1029F000002001F055FE612001F052FE002001F0A0
:102A00004FFE792001F04CFE002001F049FE8820A5
:102A100001F046FE002001F043FE972001F040FE49
:102A2000002001F03DFEA62001F03AFE002001F05A
:102A300037FEB72001F034FE002001F031FEC22045
:102A400001F02EFE002001F02BFEC72001F028FE31
:102A5000002001F025FED12001F022FE002001F02F
:102A60001FFED62001F01CFE002001F019FEDD2023
:102A700001F016FE002001F013FEF32001F010FE1D
:102A8000002001F00DFEE32001F01EFE052001F004
:102A900007FE002001F004FE0A2001F001FE0020E4
:102AA00001F0FEFD1C2001F0FBFD002001F0F8FD0F
:102AB000332001F0F5FD002001F0F2FD442001F08B
:102AC000EFFD002001F0ECFD502001F0E9FD0020B9
:102AD00001F0E6FD622001F0E3FD002001F0E0FDE1
:102AE000782001F0DDFD002001F0DAFD882001F002
:102AF000D7FD002001F0D4FD972001F0D1FD00208A
:102B000001F0CEFDA62001F0CBFD002001F0C8FDB4
:102B1000B72001F0C5FD002001F0C2FDC22001F088
:102B2000BFFD002001F0BCFDC72001F0B9FD002071
:102B300001F0B6FDD12001F0B3FD002001F0B0FDA1
:102B4000D52001F0ADFD002001F0AAFDDD2001F04F
:102B5000A7FD002001F0A4FDF32001F0A1FD00205D
:102B600001F09EFDE42001F0AFFD012001F098FD91
:102B7000002001F095FD012001F092FD002001F000
:102B80008FFD022001F08CFD002001F089FD2A203C
:102B900001F086FD002001F083FD3C2001F080FD66
:102BA000002001F07DFD4B2001F07AFD002001F0B6
:102BB00077FD5D2001F074FD002001F071FD7420AF
:102BC00001F06EFD002001F06BFD842001F068FD36
:102BD000002001F065FD932001F062FD002001F06E
:102BE0005FFDA22001F05CFD002001F059FDB32043
:102BF00001F056FD002001F053FDBE2001F050FD14
:102C0000002001F04DFDC42001F04AFD002001F03C
:102C100047FDCD2001F044FD002001F041FDD3200F
:102C200001F03EFD002001F03BFDDD2001F038FD0C
:102C3000002001F035FDF32001F032FD002001F00D
:102C40002FFDE52001F040FD002001F029FD0020CE
:102C500001F026FD002001F023FD002001F020FD01
:102C6000022001F01DFD002001F01AFD292001F0D5
:102C700017FD002001F014FD3C2001F011FD0020A3
:102C800001F00EFD4B2001F00BFD002001F008FDCE
:102C90005D2001F005FD002001F002FD742001F02F
:102CA000FFFC002001F0FCFC842001F0F9FC002076
:102CB00001F0F6FC932001F0F3FC002001F0F0FCA1
:102CC000A22001F0EDFC002001F0EAFCB32001F0AD
:102CD000E7FC002001F0E4FCBE2001F0E1FC002054
:102CE00001F0DEFCC42001F0DBFC002001F0D8FC88
:102CF000CD2001F0D5FC002001F0D2FCD32001F062
:102D0000CFFC002001F0CCFCDC2001F0C9FC00204D
:102D100001F0C6FCF32001F0C3FC002001F0C0FC70
:102D2000E62001F0D1FC112001F0BAFC002001F0F6
:102D3000B7FC342001F0B4FC002001F0B1FC5620B7
:102D400001F0AEFC002001F0ABFC762001F0A8FC05
:102D5000002001F0A5FC772001F0A2FC002001F08A
:102D60009FFC662001F09CFC002001F099FC88206B
:102D700001F096FC002001F093FC992001F090FCFA
:102D8000002001F08DFCBB2001F08AFC002001F046
:102D900087FC992001F084FC002001F081FC662072
:102DA00001F07EFC002001F07BFC552001F078FC56
:102DB000002001F075FC552001F072FC002001F0AC
:102DC0006FFC452001F06CFC002001F069FC432001
:102DD00001F066FC002001F063FC442001F060FC7F
:102DE000002001F05DFCE72001F06EFC322001F0D4
:102DF00057FC002001F054FC552001F051FC00204C
:102E000001F04EFC762001F04BFC002001F048FC64
:102E1000662001F045FC002001F042FC672001F033
:102E20003FFC002001F03CFC672001F039FC002051
:102E300001F036FC872001F033FC002001F030FC6B
:102E4000992001F02DFC002001F02AFCBB2001F0AC
:102E500027FC002001F024FC992001F021FC002037
:102E600001F01EFC772001F01BFC002001F018FC93
:102E7000442001F015FC002001F012FC562001F066
:102E80000FFC002001F00CFC232001F009FC0020C5
:102E900001F006FC332001F003FC002001F000FCEF
:102EA000452001F0FDFB002001F0FAFBE82001F0D5
:102EB0000BFC002001F0F4FB002001F0F1FB992055
:102EC00001F0EEFB002001F0EBFB872001F0E8FBB6
:102ED000002001F0E5FB882001F0E2FB002001F07A
:102EE000DFFB772001F0DCFB002001F0D9FB66203E
:102EF00001F0D6FB002001F0D3FB882001F0D0FBCD
:102F0000002001F0CDFBAA2001F0CAFB002001F057
:102F1000C7FBBB2001F0C4FB002001F0C1FB9920DE
:102F200001F0BEFB002001F0BBFB662001F0B8FB06
:102F3000002001F0B5FB552001F0B2FB002001F0AC
:102F4000AFFB552001F0ACFB002001F0A9FB4420B1
:102F500001F0A6FB002001F0A3FB442001F0A0FB40
:102F6000002001F09DFB552001F09AFB002001F0AC
:102F700097FBE92001F0A8FBAA2001F091FB0020BB
:102F800001F08EFB002001F08BFB002001F088FB9C
:102F9000002001F099FBAA2001F082FBCF2001F074
:102FA00093FB002001F07CFB002001F079FB002066
:102FB00001F076FB002001F073FB002001F070FBB4
:102FC000002001F06DFB002001F06AFB002001F001
:102FD00067FB002001F064FB002001F061FB002092
:102FE00001F05EFB002001F05BFB002001F058FBCC
:102FF000002001F055FB002001F052FB002001F001
:103000004FFB002001F04CFBF02001F05DFB0020A5
:1030100001F046FB502001F043FB002001F040FB93
:10302000002001F03DFB002001F03AFBF32001F00D
:103030004BFB002001F034FBF92001F045FB06209A
:1030400001F02EFB102001F02BFB292001F028FBC2
:10305000002001F025FB3A2001F036FB552001F05D
:103060001FFB112001F030FB642036F011FF2920F6
:1030700001F02AFB352001F027FB002001F010FBB6
:10308000512001F021FBFF2001F00AFB532001F049
:103090001BFB2C2001F004FB552001F015FB8220C6
:1030A00001F0FEFA2C2001F00FFB00BF80BD80B5BF
:1030B00000AF112001F008FB782036F0E9FE362041
:1030C00001F002FB482001F0EBFA3A2001F0FCFA93
:1030D000552001F0E5FAF02001F0F6FAC32001F0E6
:1030E000DFFAF02001F0F0FA962001F0D9FAB420CE
:1030F00001F0EAFA012001F0D3FAB62001F0E4FA77
:103100000A2001F0CDFAA22001F0CAFAB72001F09E
:10311000DBFAC62001F0C4FAB92001F0D5FA02208A
:1031200001F0BEFAE02001F0BBFAC02001F0CCFAB9
:10313000802001F0B5FA162001F0B2FAC12001F0AA
:10314000C3FA192001F0ACFAC22001F0BDFAA720A1
:1031500001F0A6FAC52001F0B7FA162001F0A0FA96
:10316000E82001F0B1FA402001F09AFA8A2001F03B
:1031700097FA002001F094FA002001F091FA29203A
:1031800001F08EFA192001F08BFAA52001F088FADF
:10319000332001F085FAE02001F096FAF02001F0EA
:1031A0007FFA072001F07CFA0D2001F079FA042063
:1031B00001F076FA052001F073FA142001F070FA9C
:1031C000362001F06DFA542001F06AFA4C2001F02B
:1031D00067FA382001F064FA132001F061FA142034
:1031E00001F05EFA2E2001F05BFA342001F058FA6B
:1031F000E12001F069FAF02001F052FA102001F00C
:103200004FFA142001F04CFA0E2001F049FA0C207C
:1032100001F046FA082001F043FA352001F040FAA7
:10322000442001F03DFA4C2001F03AFA262001F04A
:1032300037FA102001F034FA122001F031FA2C2074
:1032400001F02EFA322001F02BFAF02001F03CFAC6
:103250003C2001F025FAF02001F036FA692001F057
:103260001FFA782036F014FE212001F02DFA2920D3
:1032700001F02AFA00BF80BD80B500AF55214FF4A0
:10328000704001F035FAAA214FF2010001F030FA46
:1032900052214FF2020001F02BFA08214FF20300F5
:1032A00001F026FA01214FF2040001F021FA342145
:1032B0004FF4364001F01CFA34214BF2016001F06A
:1032C00017FA34214BF2026001F012FA0D214FF48B
:1032D000304001F00DFA0D214BF2010001F008FA27
:1032E0000D214BF2020001F003FA24214FF4374084
:1032F00001F0FEF924214BF2017001F0F9F92421CB
:103300004BF2027001F0F4F90D214FF4314001F05D
:10331000EFF90D214BF2011001F0EAF90D214BF20A
:10332000021001F0E5F924214FF4384001F0E0F9F2
:1033300024214BF6010001F0DBF924214BF60200B9
:1033400001F0D6F900214FF4324001F0D1F92421E7
:103350004FF4394001F0CCF924214BF6011001F073
:10336000C7F924214BF6021001F0C2F905214FF4F0
:10337000334001F0BDF905214BF2013001F0B8F9FD
:1033800005214BF2023001F0B3F934214FF43A40F9
:1033900001F0AEF934214BF6012001F0A9F93421F6
:1033A0004BF6022001F0A4F90B214FF4354001F057
:1033B0009FF90B214BF2015001F09AF90B214BF2CE
:1033C000025001F095F900214FF43C4001F090F9D2
:1033D000A3214BF6014001F08BF900214BF602408E
:1033E00001F086F900214FF43D4001F081F9A3215D
:1033F0004BF6015001F07CF900214BF6025001F030
:1034000077F900214FF43E4001F072F937214BF675
:10341000016001F06DF900214FF4514001F068F9AD
:1034200037214DF2011001F063F900214DF2021035
:1034300001F05EF953214DF2031001F059F900211A
:103440004DF2041001F054F979214DF2051001F00C
:103450004FF900214DF2061001F04AF997214DF283
:10346000071001F045F900214DF2081001F040F974
:10347000B1214DF2091001F03BF900214DF20A1083
:1034800001F036F9D5214DF20B1001F031F9002190
:103490004DF20C1001F02CF9F4214DF20D1001F059
:1034A00027F901214DF20E1001F022F923214DF2EE
:1034B0000F1001F01DF901214DF2101001F018F963
:1034C00049214DF2111001F013F901214DF21210B2
:1034D00001F00EF987214DF2131001F009F90121D5
:1034E0004DF2141001F004F9B6214DF2151001F05F
:1034F000FFF802214DF2161001F0FAF800214DF20A
:10350000171001F0F5F802214DF2181001F0F0F853
:103510003B214DF2191001F0EBF802214DF21A1087
:1035200001F0E6F83D214DF21B1001F0E1F8022117
:103530004DF21C1001F0DCF875214DF21D1001F068
:10354000D7F802214DF21E1001F0D2F8B1214DF250
:103550001F1001F0CDF802214DF2201001F0C8F843
:10356000D5214DF2211001F0C3F803214DF22210B4
:1035700001F0BEF809214DF2231001F0B9F8032142
:103580004DF2241001F0B4F828214DF2251001F07D
:10359000AFF803214DF2261001F0AAF852214DF2A6
:1035A000271001F0A5F803214DF2281001F0A0F832
:1035B0006B214DF2291001F09BF803214DF22A10E6
:1035C00001F096F88D214DF22B1001F091F80321B6
:1035D0004DF22C1001F08CF8A2214DF22D1001F0CB
:1035E00087F803214DF22E1001F082F8BB214DF235
:1035F0002F1001F07DF803214DF2301001F078F822
:10360000C1214DF2311001F073F803214DF2321057
:1036100001F06EF8C1214DF2331001F069F800217C
:103620004FF4524001F064F837214DF2012001F0CF
:103630005FF800214DF2022001F05AF853214DF2BB
:10364000032001F055F800214DF2042001F050F85C
:1036500079214DF2052001F04BF800214DF20620B2
:1036600001F046F897214DF2072001F041F80021C2
:103670004DF2082001F03CF8B1214DF2092001F093
:1036800037F800214DF20A2001F032F8D5214DF231
:103690000B2001F02DF800214DF20C2001F028F84C
:1036A000F4214DF20D2001F023F801214DF20E20FE
:1036B00001F01EF823214DF20F2001F019F801212D
:1036C0004DF2102001F014F849214DF2112001F0C3
:1036D0000FF801214DF2122001F00AF887214DF276
:1036E000132001F005F801214DF2142001F000F83B
:1036F000B6214DF2152000F0FBFF02214DF21620FD
:1037000000F0F6FF00214DF2172000F0F1FF02213A
:103710004DF2182000F0ECFF3B214DF2192000F093
:10372000E7FF02214DF21A2000F0E2FF3D214DF2A9
:103730001B2000F0DDFF02214DF21C2000F0D8FF1D
:1037400075214DF21D2000F0D3FF02214DF21E2005
:1037500000F0CEFFB1214DF21F2000F0C9FF022181
:103760004DF2202000F0C4FFD5214DF2212000F0C1
:10377000BFFF03214DF2222000F0BAFF09214DF2D4
:10378000232000F0B5FF03214DF2242000F0B0FF0C
:1037900028214DF2252000F0ABFF03214DF2262019
:1037A00000F0A6FF52214DF2272000F0A1FF0321D7
:1037B0004DF2282000F09CFF6B214DF2292000F0F3
:1037C00097FF03214DF22A2000F092FF8D214DF248
:1037D0002B2000F08DFF03214DF22C2000F088FFFC
:1037E000A2214DF22D2000F083FF03214DF22E2067
:1037F00000F07EFFBB214DF22F2000F079FF032166
:103800004DF2302000F074FFC1214DF2312000F064
:103810006FFF03214DF2322000F06AFFC1214DF20B
:10382000332000F065FF00214FF4534000F060FFAB
:1038300037214DF2013000F05BFF00214DF20230E4
:1038400000F056FF53214DF2033000F051FF0021EC
:103850004DF2043000F04CFF79214DF2053000F0BC
:1038600047FF00214DF2063000F042FF97214DF254
:10387000073000F03DFF00214DF2083000F038FF26
:10388000B1214DF2093000F033FF00214DF20A3032
:1038900000F02EFFD5214DF20B3000F029FF002162
:1038A0004DF20C3000F024FFF4214DF20D3000F009
:1038B0001FFF01214DF20E3000F01AFF23214DF2BF
:1038C0000F3000F015FF01214DF2103000F010FF15
:1038D00049214DF2113000F00BFF01214DF2123061
:1038E00000F006FF87214DF2133000F001FF0121A7
:1038F0004DF2143000F0FCFEB6214DF2153000F010
:10390000F7FE02214DF2163000F0F2FE00214DF2DA
:10391000173000F0EDFE02214DF2183000F0E8FE05
:103920003B214DF2193000F0E3FE02214DF21A3036
:1039300000F0DEFE3D214DF21B3000F0D9FE0221E9
:103940004DF21C3000F0D4FE75214DF21D3000F018
:10395000CFFE02214DF21E3000F0CAFEB1214DF221
:103960001F3000F0C5FE02214DF2203000F0C0FEF5
:10397000D5214DF2213000F0BBFE03214DF2223063
:1039800000F0B6FE09214DF2233000F0B1FE032114
:103990004DF2243000F0ACFE28214DF2253000F02D
:1039A000A7FE03214DF2263000F0A2FE52214DF277
:1039B000273000F09DFE03214DF2283000F098FEE4
:1039C0006B214DF2293000F093FE03214DF22A3095
:1039D00000F08EFE8D214DF22B3000F089FE032188
:1039E0004DF22C3000F084FEA2214DF22D3000F07B
:1039F0007FFE03214DF22E3000F07AFEBB214DF206
:103A00002F3000F075FE03214DF2303000F070FED3
:103A1000C1214DF2313000F06BFE03214DF2323006
:103A200000F066FEC1214DF2333000F061FE00214E
:103A30004FF4544000F05CFE37214DF2014000F09D
:103A400057FE00214DF2024000F052FE53214DF28C
:103A5000034000F04DFE00214DF2044000F048FE0E
:103A600079214DF2054000F043FE00214DF2064061
:103A700000F03EFE97214DF2074000F039FE002194
:103A80004DF2084000F034FEB1214DF2094000F043
:103A90002FFE00214DF20A4000F02AFED5214DF202
:103AA0000B4000F025FE00214DF20C4000F020FEFE
:103AB000F4214DF20D4000F01BFE01214DF20E40AD
:103AC00000F016FE23214DF20F4000F011FE0121FF
:103AD0004DF2104000F00CFE49214DF2114000F073
:103AE00007FE01214DF2124000F002FE87214DF247
:103AF000134000F0FDFD01214DF2144000F0F8FDEF
:103B0000B6214DF2154000F0F3FD02214DF21640B2
:103B100000F0EEFD00214DF2174000F0E9FD02211A
:103B20004DF2184000F0E4FD3B214DF2194000F049
:103B3000DFFD02214DF21A4000F0DAFD3D214DF289
:103B40001B4000F0D5FD02214DF21C4000F0D0FDDD
:103B500075214DF21D4000F0CBFD02214DF21E40BB
:103B600000F0C6FDB1214DF21F4000F0C1FD022161
:103B70004DF2204000F0BCFDD5214DF2214000F077
:103B8000B7FD03214DF2224000F0B2FD09214DF2B4
:103B9000234000F0ADFD03214DF2244000F0A8FDCC
:103BA00028214DF2254000F0A3FD03214DF22640CF
:103BB00000F09EFD52214DF2274000F099FD0321B7
:103BC0004DF2284000F094FD6B214DF2294000F0A9
:103BD0008FFD03214DF22A4000F08AFD8D214DF228
:103BE0002B4000F085FD03214DF22C4000F080FDBC
:103BF000A2214DF22D4000F07BFD03214DF22E401D
:103C000000F076FDBB214DF22F4000F071FD032145
:103C10004DF2304000F06CFDC1214DF2314000F01A
:103C200067FD03214DF2324000F062FDC1214DF2EB
:103C3000334000F05DFD00214FF4554000F058FD89
:103C400037214DF2015000F053FD00214DF202509A
:103C500000F04EFD53214DF2035000F049FD0021CC
:103C60004DF2045000F044FD79214DF2055000F072
:103C70003FFD00214DF2065000F03AFD97214DF234
:103C8000075000F035FD00214DF2085000F030FDE6
:103C9000B1214DF2095000F02BFD00214DF20A50E8
:103CA00000F026FDD5214DF20B5000F021FD002142
:103CB0004DF20C5000F01CFDF4214DF20D5000F0BF
:103CC00017FD01214DF20E5000F012FD23214DF29F
:103CD0000F5000F00DFD01214DF2105000F008FDD5
:103CE00049214DF2115000F003FD01214DF2125017
:103CF00000F0FEFC87214DF2135000F0F9FC012189
:103D00004DF2145000F0F4FCB6214DF2155000F0C5
:103D1000EFFC02214DF2165000F0EAFC00214DF2BA
:103D2000175000F0E5FC02214DF2185000F0E0FCC5
:103D30003B214DF2195000F0DBFC02214DF21A50EC
:103D400000F0D6FC3D214DF21B5000F0D1FC0221C9
:103D50004DF21C5000F0CCFC75214DF21D5000F0CE
:103D6000C7FC02214DF21E5000F0C2FCB1214DF201
:103D70001F5000F0BDFC02214DF2205000F0B8FCB5
:103D8000D5214DF2215000F0B3FC03214DF2225019
:103D900000F0AEFC09214DF2235000F0A9FC0321F4
:103DA0004DF2245000F0A4FC28214DF2255000F0E3
:103DB0009FFC03214DF2265000F09AFC52214DF257
:103DC000275000F095FC03214DF2285000F090FCA4
:103DD0006B214DF2295000F08BFC03214DF22A504B
:103DE00000F086FC8D214DF22B5000F081FC032168
:103DF0004DF22C5000F07CFCA2214DF22D5000F031
:103E000077FC03214DF22E5000F072FCBB214DF2E5
:103E10002F5000F06DFC03214DF2305000F068FC93
:103E2000C1214DF2315000F063FC03214DF23250BC
:103E300000F05EFCC1214DF2335000F059FC00212E
:103E40004FF4564000F054FC37214DF2016000F071
:103E50004FFC00214DF2026000F04AFC53214DF26C
:103E6000036000F045FC00214DF2046000F040FCCE
:103E700079214DF2056000F03BFC00214DF2066017
:103E800000F036FC97214DF2076000F031FC002174
:103E90004DF2086000F02CFCB1214DF2096000F0F9
:103EA00027FC00214DF20A6000F022FCD5214DF2E2
:103EB0000B6000F01DFC00214DF20C6000F018FCBE
:103EC000F4214DF20D6000F013FC01214DF20E6063
:103ED00000F00EFC23214DF20F6000F009FC0121DF
:103EE0004DF2106000F004FC49214DF2116000F029
:103EF000FFFB01214DF2126000F0FAFB87214DF229
:103F0000136000F0F5FB01214DF2146000F0F0FBAE
:103F1000B6214DF2156000F0EBFB02214DF2166068
:103F200000F0E6FB00214DF2176000F0E1FB0221FA
:103F30004DF2186000F0DCFB3B214DF2196000F0FF
:103F4000D7FB02214DF21A6000F0D2FB3D214DF269
:103F50001B6000F0CDFB02214DF21C6000F0C8FB9D
:103F600075214DF21D6000F0C3FB02214DF21E6071
:103F700000F0BEFBB1214DF21F6000F0B9FB022141
:103F80004DF2206000F0B4FBD5214DF2216000F02D
:103F9000AFFB03214DF2226000F0AAFB09214DF294
:103FA000236000F0A5FB03214DF2246000F0A0FB8C
:103FB00028214DF2256000F09BFB03214DF2266085
:103FC00000F096FB52214DF2276000F091FB032197
:103FD0004DF2286000F08CFB6B214DF2296000F05F
:103FE00087FB03214DF22A6000F082FB8D214DF208
:103FF0002B6000F07DFB03214DF22C6000F078FB7C
:10400000A2214DF22D6000F073FB03214DF22E60D2
:1040100000F06EFBBB214DF22F6000F069FB032125
:104020004DF2306000F064FBC1214DF2316000F0D0
:104030005FFB03214DF2326000F05AFBC1214DF2CB
:10404000336000F055FB55214FF4704000F050FBF9
:10405000AA214FF2010000F04BFB52214FF2020067
:1040600000F046FB08214FF2030000F041FB002165
:104070004FF2040000F03CFB00214FF4304000F010
:1040800037FB05214BF2010000F032FB02214BF21D
:10409000020000F02DFB05214BF2030000F028FB8D
:1040A00002214BF2040000F023FB08214FF43640BC
:1040B00000F01EFB50214FF4354000F019FB0521A4
:1040C0004FF4364000F014FB00214FF4374000F06D
:1040D0000FFB00214BF2017000F00AFB01214FF4AD
:1040E000384000F005FB05214BF6010000F000FB15
:1040F00005214BF6020000F0FBFA05214BF6030008
:1041000000F0F6FA02214FF43C4000F0F1FA0021F1
:104110004BF6014000F0ECFA00214BF6024000F0B3
:10412000E7FA03214FF44C4000F0E2FA00214CF68C
:10413000014000F0DDFA00214CF6024000F0D8FA10
:1041400001214FF43D4000F0D3FA84214BF6015099
:1041500000F0CEFA07214BF6025000F0C9FA3121E7
:104160004BF6035000F0C4FA00214BF6045000F067
:10417000BFFA01214FF43A4000F0BAFAAA214FF4F5
:104180007F4000F0B5FA55214FF6017000F0B0FA0B
:1041900025214FF6027000F0ABFA01214FF60370B3
:1041A00000F0A6FA40214FF4585000F0A1FA002187
:1041B0004FF4545000F09CFA05214FF4685000F081
:1041C00097FA4FF4885000F07FFA782035F060FEBF
:1041D0004FF4245000F078FA0A2035F059FE4FF4DD
:1041E000305000F071FA00BF80BD80B500AFFF20F5
:1041F00000F06AFAFF2000F053FA982000F050FA1D
:10420000062000F04DFABC2000F05EFA012000F01C
:1042100047FA0F2000F044FA612000F041FAFF2035
:1042200000F03EFA012000F03BFA012000F038FADD
:104230000B2000F035FA102000F032FA372000F0A1
:104240002FFA632000F02CFAFF2000F029FAFF205B
:1042500000F026FA012000F023FA012000F020FAF5
:10426000002000F01DFA002000F01AFAFF2000F0F4
:1042700017FA522000F014FA012000F011FA002081
:1042800000F00EFA402000F00BFABD2000F01CFAFE
:10429000012000F005FA232000F002FA452000F08A
:1042A000FFF9672000F0FCF9012000F0F9F9232064
:1042B00000F0F6F9452000F0F3F9672000F0F0F97E
:1042C000BE2000F001FA002000F0EAF9012000F021
:1042D000E7F9AB2000F0E4F9602000F0E1F92220DA
:1042E00000F0DEF9222000F0DBF9222000F0D8F9FE
:1042F000222000F0D5F9222000F0D2F9C72000F0EA
:10430000E3F9362000F0CCF9ED2000F0DDF97F2054
:1043100000F0C6F90F2000F0C3F9C02000F0D4F976
:104320000F2000F0BDF90B2000F0BAF90A2000F0D0
:10433000B7F9FC2000F0C8F9082000F0B1F9DF203F
:1043400000F0C2F9002000F0ABF9002000F0A8F95D
:10435000002000F0A5F9002000F0A2F9002000F0F4
:104360009FF9202000F09CF9F32000F0ADF97420B3
:1043700000F096F9B42000F0A7F9002000F090F9C1
:10438000002000F08DF9002000F08AF9F72000F0FD
:104390009BF9822000F084F9B12000F095F900200B
:1043A00000F07EF9132000F07BF9132000F078F97B
:1043B000F22000F089F9802000F072F9042000F06A
:1043C0006FF9402000F06CF9282000F069F9C12055
:1043D00000F07AF9172000F063F9882000F060F906
:1043E000882000F05DF9202000F05AF9E02000F06C
:1043F0006BF9002000F054F90A2000F051F9122066
:1044000000F04EF9102000F04BF90E2000F048F9B2
:10441000202000F045F9CC2000F042F9072000F000
:104420003FF9062000F03CF90B2000F039F90E208E
:1044300000F036F90F2000F033F90D2000F030F9CC
:10444000152000F02DF9102000F02AF9002000F0CE
:1044500027F9E12000F038F9002000F021F90B20C5
:1044600000F01EF9132000F01BF90D2000F018F9E0
:104470000E2000F015F91B2000F012F9712000F059
:104480000FF9062000F00CF9062000F009F90A20C7
:1044900000F006F90F2000F003F90E2000F000F9FB
:1044A0000F2000F0FDF8152000F0FAF80C2000F0C5
:1044B000F7F8002000F0F4F82A2000F005F90020B9
:1044C00000F0EEF8002000F0EBF8012000F0E8F832
:1044D000DF2000F0E5F82B2000F0F6F8002000F0D7
:1044E000DFF8002000F0DCF8032000F0D9F81F20EE
:1044F00000F0D6F83A2000F0E7F8552000F0D0F8A8
:10450000362000F0E1F8002000F0CAF8112000F099
:10451000DBF8782035F0BCFC292000F0D5F8142019
:1045200035F0B6FC2C2000F0CFF800BF80BD80B580
:1045300000AFE22000F0C8F81D2000F0B1F8022022
:1045400000F0AEF8042000F0ABF8012035F0A0FC3C
:10455000E02000F0B9F8012000F0A2F80A2035F0C0
:1045600097FCE02000F0B0F8032000F099F80C2050
:1045700035F08EFC012000F0A7F80A2035F088FC09
:10458000E62000F0A1F82F2000F08AF8FF2000F0CC
:1045900087F8FF2000F084F8B02000F095F8202084
:1045A00000F07EF8002000F07BF8032000F078F89F
:1045B00040F21F3000F074F8012000F071F840F272
:1045C000DF1000F06DF8002000F06AF8B42000F071
:1045D0007BF8042000F064F840F21F4000F060F81F
:1045E000002000F05DF82E2000F05AF8002000F0C6
:1045F00057F8002000F054F8002000F051F8002097
:1046000000F04EF8B62000F05FF8022000F048F805
:104610004FF4037000F044F8002000F041F8172038
:1046200000F03EF8152000F03BF8002000F038F8CC
:10463000002000F035F8F02000F046F8032000F0EC
:104640002FF8292000F040F8D02000F03DF800209D
:1046500000F026F8BE2000F037F8052000F020F822
:10466000FE2000F01DF8012000F01AF8002000F0F4
:1046700017F8002000F014F8002000F011F8B8201E
:1046800000F022F8032000F00BF8012000F008F8F9
:10469000BA2000F019F8012000F002F800BF80BD38
:1046A00080B483B000AF0346FB80FB889BB2FB80E5
:1046B000044BFA8892B25A8000BF0C37BD465DF8B1
:1046C000047B70477E00006C80B483B000AF03466B
:1046D000FB80FB889BB2FB80044BFA8892B21A8065
:1046E00000BF0C37BD465DF8047B70477E00006C50
:1046F00080B483B000AF03460A46FB801346BB80FC
:10470000054AFB881380044ABB88538000BF0C37DE
:10471000BD465DF8047B70477E00006C80B483B0BA
:1047200000AF786000BF7B685A1E7A60002BFAD118
:1047300000BF00BF0C37BD465DF8047B704700002A
:1047400080B582B000AF0220FFF7E8FF044B5B8822
:104750009BB2FB80FB889BB218460837BD4680BDE4
:104760007E00006C80B400AF044B054A12891A80A9
:1047700000BFBD465DF8047B704700BF7E00006C43
:10478000C827002080B582B000AF03460A46FB80F0
:104790001346BB80654B9B8841F66312934267D1F9
:1047A000624B9B79002B1ED1604B1A88FB88D31A71
:1047B0009BB2013BFB805D4B5B891846FFF784FF92
:1047C0000020FFF76DFF0020FFF76AFFFB881B0A40
:1047D0009BB21846FFF764FFFB88DBB29BB218461A
:1047E000FFF75EFF21E0514B5B891846FFF76CFF36
:1047F000FB881B0A9BB21846FFF752FFFB88DBB20F
:104800009BB21846FFF74CFF484B1B88013B1B121D
:104810009BB21846FFF744FF444B1B88013B9BB2F9
:10482000DBB29BB21846FFF73BFF404B9B89184613
:10483000FFF74AFFBB881B0A9BB21846FFF730FF01
:10484000BB88DBB29BB21846FFF72AFF374B5B8869
:10485000013B1B129BB21846FFF722FF334B5B88CC
:10486000013B9BB2DBB29BB21846FFF719FF58E041
:104870002E4B9B8845F21052934230D12B4B5B89D3
:104880001846FFF721FFFB881B0A9BB21846FFF76B
:1048900007FF264B5B8901339BB21846FFF714FFD5
:1048A000FB88DBB29BB21846FFF7FAFE1F4B9B89D1
:1048B0001846FFF709FFBB881B0A9BB21846FFF793
:1048C000EFFE1A4B9B8901339BB21846FFF7FCFEA3
:1048D000BB88DBB29BB21846FFF7E2FE21E0134B28
:1048E0005B891846FFF7F0FEFB881B0A9BB218464F
:1048F000FFF7D6FEFB88DBB29BB21846FFF7D0FE6F
:104900000A4B9B891846FFF7DFFEBB881B0A9BB248
:104910001846FFF7C5FEBB88DBB29BB21846FFF70F
:10492000BFFE00BF0837BD4680BD00BFC8270020BE
:1049300080B584B000AF0346FB710023FB810023E8
:10494000BB819C4B9B79012B05D19A4B9B8841F6EF
:104950006312934209D1974B9B79002B34D1954B2D
:104960009B8841F6631293422ED1FB79072B2BD8FB
:1049700001A252F823F000BF994900089F4900089E
:10498000A5490008AB490008B1490008B74900082B
:10499000BD490008C34900080623FB7114E0072342
:1049A000FB7111E00423FB710EE00523FB710BE0AA
:1049B0000123FB7108E00023FB7105E00323FB7179
:1049C00002E00223FB7100BFFB79072B35D801A25F
:1049D00052F823F03B4A0008F5490008FF49000857
:1049E000094A0008134A00081D4A0008274A00081F
:1049F000314A0008FB8943F08003FB811DE0FB89FD
:104A000043F04003FB8118E0FB8943F0C003FB81C6
:104A100013E0FB8943F02003FB810EE0FB8943F0A8
:104A20006003FB8109E0FB8943F0A003FB8104E004
:104A3000FB8943F0E003FB8100BF3623BB815D4B64
:104A40009B8845F21052934202D14FF45853BB81D8
:104A5000584B9B8849F2413293420BD0554B9B886F
:104A600047F28972934205D0524B9B8847F2967267
:104A7000934203D1FB8943F00803FB81FA89BB8988
:104A800011461846FFF734FE4A4B9B8841F66312E5
:104A9000934225D0FB8903F02003002B10D0454B17
:104AA0001A88444B5B889A421AD2424B1B887B81FE
:104AB000404B5A883F4B1A803E4A7B8953800FE017
:104AC0003C4B1A883B4B5B889A4209D9394B1B886F
:104AD0007B81384B5A88374B1A80364A7B89538002
:104AE000344B9B8845F21052934265D1314B5B8920
:104AF0001846FFF7E9FD0020FFF7D2FD2D4B5B893B
:104B000001339BB21846FFF7DFFD0020FFF7C8FD19
:104B1000284B5B8902339BB21846FFF7D5FD254B26
:104B20001B88013B1B129BB21846FFF7B9FD214BB6
:104B30005B8903339BB21846FFF7C6FD1D4B1B88EC
:104B4000013B9BB2DBB29BB21846FFF7A9FD194BA4
:104B50009B891846FFF7B8FD0020FFF7A1FD154B14
:104B60009B8901339BB21846FFF7AEFD0020FFF78B
:104B700097FD104B9B8902339BB21846FFF7A4FDAB
:104B80000C4B5B88013B1B129BB21846FFF788FD5C
:104B9000084B9B8903339BB21846FFF795FD054BE5
:104BA0005B88013B9BB2DBB29BB21846FFF778FDF6
:104BB0003AE000BFC82700201D4B5B891846FFF76D
:104BC00083FD0020FFF76CFD0020FFF769FD184B07
:104BD0001B88013B1B129BB21846FFF761FD144B6B
:104BE0001B88013B9BB2DBB29BB21846FFF758FD16
:104BF0000F4B9B891846FFF767FD0020FFF750FD1C
:104C00000020FFF74DFD0A4B5B88013B1B129BB256
:104C10001846FFF745FD064B5B88013B9BB2DBB2B4
:104C20009BB21846FFF73CFD00BF1037BD4680BD64
:104C3000C82700200000000080B582B000AF034606
:104C4000FB71BE20FFF740FD0520FFF729FDFB7932
:104C50001846FBF70FFC10A3D3E90023FBF790FEE7
:104C600002460B4610461946FBF76EFC03469BB204
:104C70001846FFF715FD0120FFF712FDFF20FFF793
:104C80000FFD0020FFF70CFD0020FFF709FD00BF1E
:104C90000837BD4680BD00BF66666666666604402E
:104CA00080B582B000AF0346FB71684AFB7993710F
:104CB000FB79002B65D1654BF0221A80634B4FF4D2
:104CC000A0725A80614B9B8845F21052934214D1D6
:104CD0005E4B4FF430521A815C4B4FF428525A818C
:104CE0005A4B4FF42C529A81584B4FF4F0721A8061
:104CF000564B4FF448725A8020E0544B9B8841F643
:104D00006312934211D1514B2C221A814F4B2B220B
:104D10005A814E4B2A229A814C4B4FF4F0721A80E2
:104D20004A4B4FF448725A8008E0484B2C221A81B3
:104D3000464B2A225A81454B2B229A81434B9B8812
:104D400045F21032934205D0404B9B8847F2967251
:104D5000934207D13D4B4FF4A0721A803B4B4FF466
:104D6000F0725A80394B9B8849F60602934265D10E
:104D7000364B4FF4F0721A80344B4FF448725A801D
:104D80005CE0324B4FF4A0721A80304BF0225A8014
:104D90002E4B9B8845F21052934214D12B4B4FF46B
:104DA00030521A81294B4FF428525A81274B4FF425
:104DB0002C529A81254B4FF448721A80234B4FF4A2
:104DC000F0725A8026E0214B9B8841F66312934291
:104DD00005D01E4B9B8849F60602934211D11B4B0E
:104DE0002C221A81194B2A225A81184B2B229A8184
:104DF000164B4FF448721A80144B4FF4F0725A80DD
:104E000008E0124B2C221A81104B2A225A810F4B98
:104E10002B229A810D4B9B8845F21032934205D08C
:104E20000A4B9B8847F29672934207D1074B4FF487
:104E3000F0721A80054B4FF4A0725A800020FFF7E1
:104E400077FD00BF0837BD4680BD00BFC8270020E2
:104E500090B585B000AF0446084611461A46234671
:104E6000FB800346BB800B467B8013463B80FA8861
:104E70007B8813449BB2013BFB81BA883B88134477
:104E80009BB2013BBB81824B9B8841F663129342EC
:104E900054D17F4B9B79012B50D07D4B1A887B8856
:104EA000D31A9AB2FB88D31AFB80BA883B88134482
:104EB0009BB2013B3B80764B5B891846FFF704FCB5
:104EC000FB881B0A9BB21846FFF7EAFBFB88DBB2A4
:104ED0009BB21846FFF7E4FBFA887B881344013B3A
:104EE0001B129BB21846FFF7DBFBFA887B88134442
:104EF0009BB2013B9BB2DBB29BB21846FFF7D0FBE3
:104F0000634B9B891846FFF7DFFBBB881B0A9BB2EC
:104F10001846FFF7C5FBBB88DBB29BB21846FFF70C
:104F2000BFFB3B881B0A9BB21846FFF7B9FB3B88C7
:104F3000DBB29BB21846FFF7B3FBA4E0544B9B884F
:104F400045F21052934264D1514B5B891846FFF7EA
:104F5000BBFBFB881B0A9BB21846FFF7A1FB4C4B1F
:104F60005B8901339BB21846FFF7AEFBFB88DBB2CF
:104F70009BB21846FFF794FB454B5B8902339BB20B
:104F80001846FFF7A1FBFB891B0A9BB21846FFF7E7
:104F900087FB3F4B5B8903339BB21846FFF794FBBB
:104FA000FB89DBB29BB21846FFF77AFB384B9B8933
:104FB0001846FFF789FBBB881B0A9BB21846FFF710
:104FC0006FFB334B9B8901339BB21846FFF77CFB89
:104FD000BB88DBB29BB21846FFF762FB2C4B9B8968
:104FE00002339BB21846FFF76FFBBB891B0A9BB2CB
:104FF0001846FFF755FB264B9B8903339BB2184697
:10500000FFF762FBBB89DBB29BB21846FFF748FB98
:1050100039E01F4B5B891846FFF756FBFB881B0ADC
:105020009BB21846FFF73CFBFB88DBB29BB21846ED
:10503000FFF736FBFB891B0A9BB21846FFF730FBD4
:10504000FB89DBB29BB21846FFF72AFB104B9B890A
:105050001846FFF739FBBB881B0A9BB21846FFF7BF
:105060001FFBBB88DBB29BB21846FFF719FBBB895D
:105070001B0A9BB21846FFF713FBBB89DBB29BB23E
:105080001846FFF70DFB00BF1437BD4690BD00BFAB
:10509000C827002080B588B000AF322034F0F8FE79
:1050A000D320FFF711FBFFF74BFB03461A46AF4B2C
:1050B0009A80FFF745FB03461A46AC4B9A80FFF7F0
:1050C0003FFB03461A46A94B9A80A84B9B881B02BC
:1050D0009AB2A64B9A80FFF733FB03461A46A34BBE
:1050E0009B8813439AB2A14B9A80A04B9B8849F2AC
:1050F0004132934200F022810420FFF7E5FAFFF7E6
:105100001FFB03461A46994B9A80FFF719FB03468B
:105110001A46964B9A80FFF713FB03461A46934BA9
:105120009A80924B9B881B029AB2904B9A80FFF711
:1051300007FB03461A468D4B9B8813439AB28B4B51
:105140009A808A4B9B8848F25252934203D1874BF4
:1051500047F289729A80854B9B8847F28972934205
:1051600000F0EC80D420FFF7AFFAFFF7E9FA03462E
:105170001A467E4B9A80FFF7E3FA03461A467B4BAA
:105180009A80FFF7DDFA03461A46784B9A80774BF0
:105190009B881B029AB2754B9A80FFF7D1FA03469F
:1051A0001A46724B9B8813439AB2704B9A806F4B8E
:1051B0009B8845F21032934200F0C080D320FFF765
:1051C00083FAFFF7BDFA03461A46684B9A80FFF749
:1051D000B7FA03461A46654B9A80FFF7B1FA0346C1
:1051E0001A46624B9A80614B9B881B029AB25F4BB6
:1051F0009A80FFF7A5FA03461A465C4B9B88134337
:105200009AB25A4B9A80594B9B8847F296729342B6
:1052100000F0948055214FF47040FFF769FAAA21FD
:105220004FF20100FFF764FA52214FF20200FFF73C
:105230005FFA08214FF20300FFF75AFA01214FF2FB
:105240000400FFF755FA4FF44540FFF73DFAFFF72A
:1052500077FA03461A46454B9A80444B9B881B02BB
:105260009AB2424B9A804CF20150FFF72DFAFFF7A9
:1052700067FA03461A463D4B9B8813439AB23B4B51
:105280009A80052034F004FE384B9B8845F210527A
:10529000934253D0D320FFF717FAFFF751FA034692
:1052A0001A46324B9A80FFF74BFA03461A462F4BA9
:1052B0009A80FFF745FA03461A462C4B9A802B4BEF
:1052C0009B881B029AB2294B9A80FFF739FA034652
:1052D0001A46264B9B8813439AB2244B9A80234B41
:1052E0009B8849F60602934228D0A120FFF7ECF9EB
:1052F000FFF726FA03461A461C4B9A80FFF720FA5E
:1053000003461A46194B9A80184B9B881B029AB287
:10531000164B9A80FFF714FA03461A46134B9B88E4
:1053200013439AB2114B9A80104B9B8845F26172DD
:10533000934203D10D4B41F663129A800B4B9B882D
:1053400019460B483BF0A8FF084B9B8847F289722F
:10535000934202D1FCF742FD3BE0044B9B8849F2AB
:105360004132934206D1FCF70FFE32E0C8270020FD
:1053700028740408494B9B8845F21032934202D1AD
:10538000FCF71AFF25E0454B9B8847F29672934243
:1053900002D1FDF78CFE1CE0404B9B8845F2105279
:1053A000934202D1FDF768FF13E03C4B9B8849F61E
:1053B0000602934202D1FEF718FF0AE0374B9B88A2
:1053C00041F66312934204D1FFF7B1F86420FFF76E
:1053D00033FC324B9B8847F2897293420DD10323F1
:1053E0007B600323FB602E4B58682D4B9A682C4B37
:1053F0001B6B391D34F008FE3EE0284B9B8849F6B4
:10540000060293420BD0254B9B8849F241329342CE
:1054100005D0224B9B8845F2105293420DD10223B6
:105420007B600223FB601E4B58681D4B9A681C4B27
:105430001B6B391D34F0E8FD1EE0184B9B8845F2CC
:10544000103293420BD0154B9B8847F296729342D1
:1054500005D0124B9B8841F6631293420CD1012375
:105460007B600123FB600E4B58680D4B9A680C4B18
:105470001B6B391D34F0C8FD0120FFF711FC012220
:105480004FF40041074833F09DFF4FF6FF7000F0E6
:105490000BF800BF2037BD4680BD00BFC8270020E5
:1054A000782700200004024080B584B000AF034696
:1054B000FB800023FB60114B1B88BB600F4B5B889C
:1054C0001A46BB6802FB03F3BB6000210020FFF714
:1054D00059F9FFF747F90023FB6005E0084AFB880C
:1054E0005380FB680133FB60FA68BB689A42F5D3CE
:1054F00000BF00BF1037BD4680BD00BFC8270020D9
:105500007E00006C80B483B000AF00237B6003E0BA
:1055100000BF7B6801337B607B68B3F5487FF7D3BE
:1055200000BF00BF0C37BD465DF8047B704780B5F7
:1055300082B000AF00F046F80023FB710AE000F0F3
:1055400029F8FFF7DFFF00F031F8FFF7DBFFFB7909
:105550000133FB71FB79082BF1D900F067F800BF2C
:105560000837BD4680BD80B584B000AF0346FB71EF
:1055700000F04CF8FB795B00DBB2184600F080F8D5
:105580000346FB7300F052F8FB7B18461037BD460C
:1055900080BD000080B500AF01220121024833F038
:1055A00011FF00BF80BD00BF0004024080B500AF06
:1055B00000220121024833F005FF00BF80BD00BF7B
:1055C0000004024080B500AF01224FF400610248A0
:1055D00033F0F8FE00BF80BD0014024080B500AF7C
:1055E00000224FF40061024833F0ECFE00BF80BDA2
:1055F0000014024080B500AF4FF40061024833F060
:10560000C9FE0346184680BD0014024080B500AFB5
:10561000FFF7D8FFFFF7BEFFFFF774FFFFF7DEFFCE
:10562000FFF770FFFFF7C2FF00BF80BD80B500AF7E
:10563000FFF7D4FFFFF766FFFFF7ACFFFFF762FF4E
:10564000FFF7C0FFFFF75EFF00BF80BD80B582B0EF
:1056500000AFFFF7B7FFFFF755FFFFF79BFFFFF71F
:1056600051FFFFF7C7FF0346002B0CBF01230023A8
:10567000FB71FFF79BFFFB7918460837BD4680BDDD
:1056800080B584B000AF0346FB710023FB7316E0C6
:1056900097F90730002B02DAFFF794FF01E0FFF7DC
:1056A0009DFFFFF72FFFFFF775FFFFF72BFFFFF7BA
:1056B0007DFFFB795B00FB71FB7B0133FB73FB7BA5
:1056C000072BE5D9FFF7C2FF034618461037BD4642
:1056D00080BD80B584B000AF0346FB710023FB732F
:1056E000FFF770FF0023BB7316E0FB7B5B00FB73CF
:1056F000FFF750FFFFF706FFFFF77CFF0346012B84
:1057000003D1FB7B43F00103FB73FFF74FFFFFF770
:10571000F9FEBB7B0133BB73BB7B072BE5D9FB7960
:10572000002B02D0FFF75AFF01E0FFF74BFFFFF716
:10573000E9FEFFF72FFFFFF7E5FEFFF737FFFFF763
:1057400041FFFB7B18461037BD4680BD80B584B055
:1057500000AF03463960FB801346BB80FFF756FF5E
:10576000274B1B785B00DBB21846FFF789FF034627
:1057700083F00103DBB2002B03D0FFF757FF0023B8
:1057800039E0FB881B0A9BB2DBB21846FFF778FFB3
:10579000034683F00103DBB2002B0AD1FB88DBB2A6
:1057A0001846FFF76DFF034683F00103DBB2002BC1
:1057B00003D0FFF73BFF00231DE00023FB8113E034
:1057C000FB893A6813441B781846FFF759FF0346D4
:1057D00083F00103DBB2002B03D0FFF727FF002388
:1057E00009E0FB890133FB81FA89BB889A42E7D340
:1057F000FFF71CFF012318461037BD4680BD00BFD0
:105800000000002090B585B000AF03463960FB80F2
:105810001346BB80FFF7FAFE324B1B785B00DBB20E
:105820001846FFF72DFF034683F00103DBB2002B80
:1058300003D0FFF7FBFE002350E0FB881B0A9BB25E
:10584000DBB21846FFF71CFF034683F00103DBB20F
:10585000002B0AD1FB88DBB21846FFF711FF034685
:1058600083F00103DBB2002B03D0FFF7DFFE002340
:1058700034E0FFF7CBFE1B4B1B785BB25B005BB2E7
:1058800043F001035BB2DBB21846FFF7F9FE0346B3
:1058900083F00103DBB2002B03D0FFF7C7FE002328
:1058A0001CE00023FB8112E0FA89BB88013B9A428D
:1058B000B4BF01230023D9B2FB893A68D418084643
:1058C000FFF707FF03462370FB890133FB81FA8949
:1058D000BB889A42E8D3FFF7A9FE01231846143784
:1058E000BD4690BD0000002080B485B000AF786058
:1058F0000B467B800023FB730023BB8109E0BB893F
:105900007A6813441A78FB7B1344FB73BB89013319
:10591000BB81BA897B889A42F1D3FB7B5B42DBB2C5
:1059200018461437BD465DF8047B704780B5B2B0A9
:1059300000AF03460A46FB801346BB800123BB72BF
:1059400007F10C03B822194648F24700FFF75AFF47
:10595000034683F00103DBB2002B04D045483BF043
:10596000F7FC002382E07B7B1AB2BB7B1BB21B02DD
:105970001BB213431BB2A7F8C630FB7B1AB23B7CA9
:105980001BB21B021BB213431BB2A7F8C430B7F8FB
:10599000C630B7F8C420194637483BF07DFCB7F84D
:1059A000C620FB889A4206D1B7F8C420BB889A4229
:1059B00001D101235AE0FB88DBB27B73FB881B0A11
:1059C0009BB2DBB2BB73BB88DBB2FB73BB881B0A29
:1059D0009BB2DBB23B7407F10C03B8211846FFF70A
:1059E00083FF0346FB7207F10C03B822194648F205
:1059F0004700FFF7ABFE034683F00103DBB2002B49
:105A000004D01E483BF0A4FC00232FE007F10B0359
:105A10000122194648F2FF00FFF798FE034683F083
:105A20000103DBB2002B04D015483BF091FC0023AE
:105A30001CE007F10A03012219464FF40140FFF769
:105A400085FE034683F00103DBB2002B04D00D4832
:105A50003BF07EFC002309E0142034F019FAFB88A7
:105A6000BA88194608483BF017FC01231846C83786
:105A7000BD4680BD3474040854740408707404086E
:105A800090740408B0740408D074040880B588B019
:105A900000AF07F10C0300221A605A609A60DA60C6
:105AA0001A610023BB60324B1B6B314A43F0020387
:105AB00013632F4B1B6B03F00203BB60BB68002317
:105AC0007B602B4B1B6B2A4A43F020031363284B4C
:105AD0001B6B03F020037B607B6800233B60244B3F
