:020000040800F2
:100000000000022045E9040815E504081DE5040880
:1000100059E5040889E50408B9E504080000000072
:10002000000000000000000000000000819F0008A8
:10003000C1E5040800000000D1A10008418E0008BD
:1000400095E9040895E9040895E9040895E9040888
:1000500095E9040895E9040895E9040895E9040878
:1000600095E9040895E9040895E9040895E9040868
:10007000D1E5040895E90408E5E5040895E90408D4
:1000800095E9040895E90408F9E5040895E90408E8
:1000900095E9040895E9040895E9040895E9040838
:1000A00095E9040895E9040895E9040895E9040828
:1000B00095E9040895E9040895E9040895E9040818
:1000C00095E9040895E9040895E9040895E9040808
:1000D00095E9040815E6040895E9040829E60408EA
:1000E00095E9040895E9040895E9040895E90408E8
:1000F00095E9040895E9040895E9040895E90408D8
:1001000095E9040895E9040895E9040895E90408C7
:100110003DE6040895E9040851E6040895E9040859
:1001200095E9040895E9040869E6040895E90408D6
:1001300095E9040895E9040895E9040895E9040897
:1001400095E9040895E9040895E9040895E9040887
:1001500095E9040895E904087DE6040895E9040892
:1001600095E9040895E9040895E9040895E9040867
:1001700095E9040895E9040895E9040800000000E1
:0801800095E9040895E9040863
:1001900010B5054C237833B9044B13B10448AFF3C1
:1001A00000800123237010BD980100200000000092
:1001B0009C06050808B5034B1BB103490348AFF380
:1001C000008008BD000000009C0100209C0605087E
:1001D00070B54FF0FF0C4CF4E06C1CEA11541DBFDD
:1001E0001CEA135594EA0C0F95EA0C0F00F0DEF8A8
:1001F0002C4481EA030621EA4C5123EA4C5350EA8D
:10020000013518BF52EA033541F4801143F48013DD
:1002100038D0A0FB02CE4FF00005E1FB02E506F06E
:100220000042E0FB03E54FF00006E1FB03569CF0C3
:10023000000F18BF4EF0010EA4F1FF04B6F5007FC9
:1002400064F5407404D25FEA4E0E6D4146EB06063B
:1002500042EAC62141EA55514FEAC52040EA5E50C4
:100260004FEACE2EB4F1FD0C88BFBCF5E06F1ED86E
:10027000BEF1004F08BF5FEA500E50F1000041EBA5
:10028000045170BD06F0004646EA010140EA020052
:1002900081EA0301B4EB5C04C2BFD4EB0C0541EA74
:1002A000045170BD41F480114FF0000E013C00F389
:1002B000AB8014F1360FDEBF002001F0004170BDAD
:1002C000C4F10004203C35DA0C341BDC04F11404C6
:1002D000C4F1200500FA05F320FA04F001FA05F252
:1002E00040EA020001F0004221F0004110EBD3701F
:1002F00021FA04F642EB06015EEA430E08BF20EA4B
:10030000D37070BDC4F10C04C4F1200500FA04F3ED
:1003100020FA05F001FA04F240EA020001F000417F
:1003200010EBD37041F100015EEA430E08BF20EAF2
:10033000D37070BDC4F1200500FA05F24EEA020E3A
:1003400020FA04F301FA05F243EA020321FA04F069
:1003500001F0004121FA04F220EA020000EBD37020
:100360005EEA430E08BF20EAD37070BD94F0000F20
:100370000FD101F00046400041EB010111F4801F54
:1003800008BF013CF7D041EA060195F0000F18BF05
:10039000704703F00046520043EB030313F4801F41
:1003A00008BF013DF7D043EA0603704794EA0C0FFB
:1003B0000CEA135518BF95EA0C0F0CD050EA410611
:1003C00018BF52EA4306D1D181EA030101F000418E
:1003D0004FF0000070BD50EA410606BF10461946B6
:1003E00052EA430619D094EA0C0F02D150EA0136C2
:1003F00013D195EA0C0F05D152EA03361CBF104603
:1004000019460AD181EA030101F0004141F0FE41A1
:1004100041F470014FF0000070BD41F0FE4141F425
:10042000780170BD81F0004102E000BF83F000431D
:1004300030B54FEA41044FEA430594EA050F08BF7F
:1004400090EA020F1FBF54EA000C55EA020C7FEA43
:10045000645C7FEA655C00F0E2804FEA5454D4EBC0
:100460005555B8BF6D420CDD2C4480EA020281EA8A
:10047000030382EA000083EA010180EA020281EAC2
:100480000303362D88BF30BD11F0004F4FEA013114
:100490004FF4801C4CEA113102D0404261EB410123
:1004A00013F0004F4FEA03334CEA133302D05242A9
:1004B00063EB430394EA050F00F0A780A4F1010465
:1004C000D5F1200E0DDB02FA0EFC22FA05F280189F
:1004D00041F1000103FA0EF2801843FA05F3594185
:1004E0000EE0A5F120050EF1200E012A03FA0EFC04
:1004F00028BF4CF0020C43FA05F3C01851EBE3712E
:1005000001F0004507D54FF0000EDCF1000C7EEB4A
:1005100000006EEB0101B1F5801F1BD3B1F5001F88
:100520000CD349085FEA30004FEA3C0C04F10104A7
:100530004FEA445212F5800F80F09A80BCF1004FD0
:1005400008BF5FEA500C50F1000041EB045141EA52
:10055000050130BD5FEA4C0C404141EB0101013C1B
:1005600028BFB1F5801FE9D291F0000F04BF01460A
:100570000020B1FA81F308BF2033A3F10B03B3F1DC
:1005800020020CDA0C3208DD02F1140CC2F10C026C
:1005900001FA0CF021FA02F10CE002F11402D8BFCA
:1005A000C2F1200C01FA02F120FA0CFCDCBF41EA96
:1005B0000C019040E41AA2BF01EB0451294330BD65
:1005C0006FEA04041F3C1CDA0C340EDC04F1140442
:1005D000C4F1200220FA04F001FA02F340EA030019
:1005E00021FA04F345EA030130BDC4F10C04C4F15F
:1005F000200220FA02F001FA04F340EA030029463F
:1006000030BD21FA04F0294630BD94F0000F83F488
:10061000801306BF81F480110134013D4EE77FEA6B
:10062000645C18BF7FEA655C29D094EA050F08BFB7
:1006300090EA020F05D054EA000C04BF1946104698
:1006400030BD91EA030F1EBF0021002030BD5FEADC
:10065000545C05D14000494128BF41F0004130BD04
:1006600014F580043CBF01F5801130BD01F0004558
:1006700045F0FE4141F470014FF0000030BD7FEACB
:10068000645C1ABF194610467FEA655C1CBF0B46C6
:10069000024650EA013406BF52EA033591EA030FDD
:1006A00041F4002130BD00BF90F0000F04BF0021D5
:1006B000704730B54FF4806404F132044FF0000508
:1006C0004FF0000150E700BF90F0000F04BF002181
:1006D000704730B54FF4806404F1320410F00045E7
:1006E00048BF40424FF000013EE700BF42004FEAE2
:1006F000E2014FEA31014FEA02701FBF12F07F435F
:1007000093F07F4F81F06051704732F07F4208BF15
:10071000704793F07F4F04BF41F40021704730B51C
:100720004FF4607401F0004521F000411CE700BF68
:1007300050EA010208BF704730B54FF000050AE0EB
:1007400050EA010208BF704730B511F0004502D5EC
:10075000404261EB41014FF4806404F132045FEAEE
:10076000915C3FF4D8AE4FF003025FEADC0C18BF97
:1007700003325FEADC0C18BF033202EBDC02C2F189
:10078000200300FA03FC20FA02F001FA03FE40EA1B
:100790000E0021FA02F11444BDE600BF4A0011D256
:1007A00012F5001211D20DD56FF47873B3EB6252CB
:1007B0000ED44FEAC12343F0004343EA505323FAD7
:1007C00002F070474FF00000704750EA013002D14C
:1007D0004FF0FF3070474FF00000704753B94AB9EF
:1007E000002908BF00281CBF4FF0FF314FF0FF3039
:1007F00000F088B9ADF1080C6DE904CE00F006F800
:10080000DDF804E0DDE9022304B070472DE9F0478C
:10081000089D8E4604468846002B4AD18A421746D8
:1008200062D9B2FA82F64EB1C6F1200301FA06F897
:1008300020FA03F3B74043EA0808B4404FEA174EE2
:100840001FFA87FCB8FBFEF1230C0EFB118843EA6C
:10085000084301FB0CF29A4209D9FB1801F1FF3061
:1008600080F0EA809A4240F2E78002393B449A1ACB
:10087000A3B2B2FBFEF00EFB102243EA024300FBE0
:100880000CFC9C4509D9FB1800F1FF3280F0D680A2
:100890009C4540F2D3803B44023840EA0140A3EB40
:1008A0000C0300211DB1F3400022C5E90032BDE870
:1008B000F0878B4205D90DB1C5E90001002108463A
:1008C000F5E7B3FA83F1002946D1734502D382429A
:1008D00000F20581841A6EEB030201209046002D80
:1008E000E5D0C5E90048E2E7002A00F09080B2FABE
:1008F00082F6002E40F0A4808A1A030C4FEA174EAD
:1009000080B2BCB20121B2FBFEFC0EFB1C2243EA0A
:10091000024304FB0CF29A4207D9FB180CF1FF3892
:1009200002D29A4200F2E080C4469B1AB3FBFEF268
:100930000EFB123340EA034302FB04F49C4207D946
:10094000FB1802F1FF3002D29C4200F2CA8002463C
:100950001B1B42EA0C40A5E7C1F120068B4022FA9E
:1009600006F71F430EFA01F420FA06F32EFA06FEEC
:100970004FEA1749234300FA01F81FFA87FCBEFB30
:10098000F9F01C0C09FB10EE44EA0E4400FB0CFECF
:10099000A64502FA01F209D93C1900F1FF3A80F0AC
:1009A0009C80A64540F2998002383C44A4EB0E049A
:1009B0001FFA83FEB4FBF9F309FB13444EEA044427
:1009C00003FB0CFCA44508D93C1903F1FF3E80F061
:1009D0008280A4457FD9023B3C4443EA0040A4EB1B
:1009E0000C04A0FB02EC64457346E14662D35FD081
:1009F0005DB1B8EB030264EB090404FA06F622FACF
:100A000001F31E43CC40C5E9006400214FE7B1FB70
:100A1000F2FC010C41EA0E4180B240EA01423B4641
:100A200038463C46B846BE462026B1FBF7F1A2EB5D
:100A3000080241EA0C4166E7014618E710462CE738
:100A4000C6F120022EFA02F3B740B14020FA02F2BA
:100A50004FEA174E0A43B3FBFEF8BCB20EFB183345
:100A6000110C41EA034108FB04F9B04089454FEA03
:100A7000104380B23ED9791808F1FF3C01D2894574
:100A80001FD8A1EB0901B1FBFEF909FB04F80EFB2D
:100A9000191192B242EA0142424529D2BA1809F12B
:100AA000FF31C4D24245C2D2A9F102013A44BEE7A5
:100AB000F0459DD2BEEB02036CEB070C0138E1461A
:100AC00096E7A7EB09094944A8F1020CB1FBFEF92E
:100AD00009FB04F8DBE773467FE7504666E7084604
:100AE000FDE63B44023A33E7ACF1020C3B441CE721
:100AF00049469CE7A1EB0901C446B1FBFEF909FB9D
:100B000004F8C4E7704700BF10F8012B11F8013B4F
:100B1000012A28BF9A42F7D0D01A7047034613F82B
:100B2000012B002AFBD1181A013870470000000081
:100B300001F0FF01102A2BDB10F0070F08D010F88E
:100B4000013B013A8B422DD010F0070F42B3F6D192
:100B5000F0B441EA012141EA014122F007047FF0AB
:100B600000070023F0E80256083C85EA010586EA02
:100B7000010685FA47F5A3FA87F586FA47F6A5FA3E
:100B800087F68EB9EED1F0BC01F0FF0102F007024A
:100B900032B110F8013B013A83EA010313B1F8D1F5
:100BA0000020704701387047002D06BF35460338D6
:100BB000073815F0010F07D1013015F4807F02BF0F
:100BC000013015F4C03F0130F0BC0138704700BF60
:100BD00080B400AF064BD3F88830054A43F4700365
:100BE000C2F8883000BFBD465DF8047B704700BF87
:100BF00000ED00E080B582B000AF78607B68002B2C
:100C000001D1012341E07B6893F83D30DBB2002B3A
:100C100006D17B68002283F83C2078684DF004FA06
:100C20007B68022283F83D207B681A687B68043366
:100C30001946104600F062FC7B68012283F84620CA
:100C40007B68012283F83E207B68012283F83F20E5
:100C50007B68012283F840207B68012283F84120D1
:100C60007B68012283F842207B68012283F84320BD
:100C70007B68012283F844207B68012283F84520A9
:100C80007B68012283F83D20002318460837BD46C3
:100C900080BD000080B485B000AF78607B6893F8B9
:100CA0003D30DBB2012B01D001234EE07B680222F4
:100CB00083F83D207B681B68DA687B681B6842F01C
:100CC0000102DA607B681B68234A934222D07B686A
:100CD0001B68B3F1804F1DD07B681B681F4A93428D
:100CE00018D07B681B681E4A934213D07B681B6830
:100CF0001C4A93420ED07B681B681B4A934209D062
:100D00007B681B68194A934204D07B681B68184AA9
:100D1000934211D17B681B689B6803F00703FB605B
:100D2000FB68062B10D07B681B681A687B681B6801
:100D300042F001021A6007E07B681B681A687B6852
:100D40001B6842F001021A60002318461437BD46A2
:100D50005DF8047B704700BF0000014000040040C4
:100D600000080040000C0040000401400040014029
:100D70000018004080B582B000AF78607B68002B1F
:100D800001D1012341E07B6893F83D30DBB2002BB9
:100D900006D17B68002283F83C20786800F039F89F
:100DA0007B68022283F83D207B681A687B680433E5
:100DB0001946104600F0A2FB7B68012283F846200A
:100DC0007B68012283F83E207B68012283F83F2064
:100DD0007B68012283F840207B68012283F8412050
:100DE0007B68012283F842207B68012283F843203C
:100DF0007B68012283F844207B68012283F8452028
:100E00007B68012283F83D20002318460837BD4641
:100E100080BD80B483B000AF786000BF0C37BD46A2
:100E20005DF8047B7047000080B584B000AF786047
:100E300039603B68002B09D17B6893F83E30DBB208
:100E4000012B14BF01230023DBB222E03B68042BFB
:100E500009D17B6893F83F30DBB2012B14BF01232B
:100E60000023DBB215E03B68082B09D17B6893F8BF
:100E70004030DBB2012B14BF01230023DBB208E0BA
:100E80007B6893F84130DBB2012B14BF01230023B0
:100E9000DBB2002B01D001237CE03B68002B04D1A6
:100EA0007B68022283F83E2013E03B68042B04D1C8
:100EB0007B68022283F83F200BE03B68082B04D1BB
:100EC0007B68022283F8402003E07B68022283F8DB
:100ED00041207B681B6801223968184600F0FEFD3E
:100EE0007B681B682D4A934204D07B681B682C4AA0
:100EF000934201D1012300E00023002B07D07B683F
:100F00001B685A6C7B681B6842F400425A647B6819
:100F10001B68224A934222D07B681B68B3F1804F42
:100F20001DD07B681B681F4A934218D07B681B68E2
:100F30001D4A934213D07B681B681C4A93420ED013
:100F40007B681B68164A934209D07B681B68184A65
:100F5000934204D07B681B68164A934211D17B6888
:100F60001B689B6803F00703FB60FB68062B10D02F
:100F70007B681B681A687B681B6842F001021A6074
:100F800007E07B681B681A687B681B6842F00102F7
:100F90001A60002318461037BD4680BD000001408E
:100FA000000401400004004000080040000C004024
:100FB000004001400018004080B584B000AF786068
:100FC0007B681B68DB68FB607B681B681B69BB6018
:100FD000BB6803F00203002B20D0FB6803F0020380
:100FE000002B1BD07B681B686FF002021A617B68C4
:100FF00001221A777B681B689B6903F00303002BAF
:1010000003D0786800F05BFA05E0786800F04DFAEC
:10101000786800F05EFA7B6800221A77BB6803F0FC
:101020000403002B20D0FB6803F00403002B1BD02B
:101030007B681B686FF004021A617B6802221A77D2
:101040007B681B689B6903F44073002B03D07868AE
:1010500000F035FA05E0786800F027FA786800F0CB
:1010600038FA7B6800221A77BB6803F00803002B6C
:1010700020D0FB6803F00803002B1BD07B681B68A3
:101080006FF008021A617B6804221A777B681B687C
:10109000DB6903F00303002B03D0786800F00FFA3C
:1010A00005E0786800F001FA786800F012FA7B68D1
:1010B00000221A77BB6803F01003002B20D0FB68D6
:1010C00003F01003002B1BD07B681B686FF010022D
:1010D0001A617B6808221A777B681B68DB6903F456
:1010E0004073002B03D0786800F0E9F905E07868D8
:1010F00000F0DBF9786800F0ECF97B6800221A77E1
:10110000BB6803F00103002B0CD0FB6803F0010364
:10111000002B07D07B681B686FF001021A617868AA
:101120004CF002FABB6803F08003002B0CD0FB6884
:1011300003F08003002B07D07B681B686FF08002F0
:101140001A61786800F0F9FCBB6803F04003002BDB
:101150000CD0FB6803F04003002B07D07B681B68B2
:101160006FF040021A61786800F0BDF9BB6803F0C7
:101170002003002B0CD0FB6803F02003002B07D0CA
:101180007B681B686FF020021A61786800F0CBFC66
:1011900000BF1037BD4680BD80B586B000AFF86097
:1011A000B9607A600023FB75FB6893F83C30012B33
:1011B00001D10223AEE0FB68012283F83C207B686A
:1011C0000C2B00F29F8001A252F823F001120008BC
:1011D0000513000805130008051300084112000854
:1011E0000513000805130008051300088312000802
:1011F000051300080513000805130008C3120008B2
:10120000FB681B68B968184600F01EFAFB681B688B
:101210009A69FB681B6842F008029A61FB681B68C8
:101220009A69FB681B6822F004029A61FB681B68DC
:101230009969BB681A69FB681B680A439A6164E094
:10124000FB681B68B968184600F06EFAFB681B68FB
:101250009A69FB681B6842F400629A61FB681B682C
:101260009A69FB681B6822F480629A61FB681B68BC
:101270009969BB681B691A02FB681B680A439A617B
:1012800043E0FB681B68B968184600F0C3FAFB68C6
:101290001B68DA69FB681B6842F00802DA61FB68C8
:1012A0001B68DA69FB681B6822F00402DA61FB68DC
:1012B0001B68D969BB681A69FB681B680A43DA6155
:1012C00023E0FB681B68B968184600F017FBFB6851
:1012D0001B68DA69FB681B6842F40062DA61FB682C
:1012E0001B68DA69FB681B6822F48062DA61FB68BC
:1012F0001B68D969BB681B691A02FB681B680A4333
:10130000DA6102E00123FB7500BFFB68002283F86D
:101310003C20FB7D18461837BD4680BD80B584B0A3
:1013200000AF786039600023FB737B6893F83C3032
:10133000012B01D10223B4E07B68012283F83C2019
:101340007B68022283F83D207B681B689B68BB603A
:10135000BB6823F07703BB60BB6823F47F43BB60AB
:101360007B681B68BA689A603B681B68B3F5005FCE
:101370003ED0B3F5005F00F28780B3F5805F00F0E8
:101380008680B3F5805F7FD8702B1AD0702B7BD806
:10139000602B50D0602B77D8502B3CD0502B73D87B
:1013A000402B58D0402B6FD8302B64D0302B6BD8CB
:1013B000202B60D0202B67D8002B5CD0102B5AD06C
:1013C00062E07B6818683B6899683B685A683B68CC
:1013D000DB6800F063FB7B681B689B68BB60BB68D5
:1013E00043F07703BB607B681B68BA689A604FE084
:1013F0007B6818683B6899683B685A683B68DB689B
:1014000000F04CFB7B681B689A687B681B6842F4A1
:1014100080429A603CE07B6818683B6859683B688A
:10142000DB681A4600F0C0FA7B681B68502118463A
:1014300000F019FB2CE07B6818683B6859683B6832
:10144000DB681A4600F0DFFA7B681B6860211846EB
:1014500000F009FB1CE07B6818683B6859683B6832
:10146000DB681A4600F0A0FA7B681B68402118462A
:1014700000F0F9FA0CE07B681A683B681B681946B3
:10148000104600F0F0FA03E00123FB7300E000BF18
:101490007B68012283F83D207B68002283F83C2092
:1014A000FB7B18461037BD4680BD80B483B000AFCB
:1014B000786000BF0C37BD465DF8047B704780B490
:1014C00083B000AF786000BF0C37BD465DF8047B89
:1014D000704780B483B000AF786000BF0C37BD4662
:1014E0005DF8047B704780B483B000AF786000BFC4
:1014F0000C37BD465DF8047B7047000080B485B0B2
:1015000000AF786039607B681B68FB607B68434A8A
:10151000934213D07B68B3F1804F0FD07B68404A71
:1015200093420BD07B683F4A934207D07B683E4A88
:10153000934203D07B683D4A934208D1FB6823F075
:101540007003FB603B685B68FA681343FB607B6871
:10155000324A93422BD07B68B3F1804F27D07B680F
:101560002F4A934223D07B682E4A93421FD07B6838
:101570002D4A93421BD07B682C4A934217D07B683C
:101580002B4A934213D07B682A4A93420FD07B6840
:10159000294A93420BD07B68284A934207D07B6844
:1015A000274A934203D07B68264A934208D1FB68BE
:1015B00023F44073FB603B68DB68FA681343FB600D
:1015C000FB6823F080023B685B691343FB603B6868
:1015D0009A687B68DA623B681A687B689A627B6803
:1015E0000E4A934203D07B68104A934203D13B6872
:1015F0001A697B681A637B681B6843F004027B6886
:101600001A607B6801225A617B68FA681A6000BF21
:101610001437BD465DF8047B704700BF00000140F1
:101620000004004000080040000C0040000401409D
:1016300000400140004401400048014000180040C3
:10164000001C00400020004080B487B000AF7860EC
:1016500039607B681B6A7B617B681B6A23F001022F
:101660007B681A627B685B683B617B689B69FB6097
:10167000FB6823F07003FB60FB6823F00303FB604F
:101680003B681B68FA681343FB607B6923F0020325
:101690007B613B689B687A6913437B617B68204A66
:1016A000934203D07B681F4A93420CD17B6923F09D
:1016B00008037B613B68DB687A6913437B617B6964
:1016C00023F004037B617B68154A934203D07B6857
:1016D000144A934211D13B6923F480733B613B6907
:1016E00023F400733B613B685B693A6913433B61D8
:1016F0003B689B693A6913433B617B683A695A606E
:101700007B68FA689A613B685A687B685A637B68B1
:101710007A691A6200BF1C37BD465DF8047B7047CA
:10172000000001400004014080B487B000AF786041
:1017300039607B681B6A7B617B681B6A23F010023F
:101740007B681A627B685B683B617B689B69FB60B6
:10175000FB6823F4E043FB60FB6823F44073FB6009
:101760003B681B681B02FA681343FB607B6923F02C
:1017700020037B613B689B681B017A6913437B6193
:101780007B68224A934203D07B68214A93420DD161
:101790007B6923F080037B613B68DB681B017A690E
:1017A00013437B617B6923F040037B617B68174AAD
:1017B000934203D07B68164A934213D13B6923F4CA
:1017C00080633B613B6923F400633B613B685B6979
:1017D0009B003A6913433B613B689B699B003A69F4
:1017E00013433B617B683A695A607B68FA689A6187
:1017F0003B685A687B689A637B687A691A6200BFA3
:101800001C37BD465DF8047B704700BF00000140F7
:101810000004014080B487B000AF786039607B6815
:101820001B6A7B617B681B6A23F480727B681A6287
:101830007B685B683B617B68DB69FB60FB6823F06E
:101840007003FB60FB6823F00303FB603B681B68CD
:10185000FA681343FB607B6923F400737B613B6888
:101860009B681B027A6913437B617B68214A934220
:1018700003D07B68204A93420DD17B6923F4006337
:101880007B613B68DB681B027A6913437B617B6980
:1018900023F480637B617B68164A934203D07B68A4
:1018A000154A934213D13B6923F480533B613B6952
:1018B00023F400533B613B685B691B013A691343A6
:1018C0003B613B689B691B013A6913433B617B6841
:1018D0003A695A607B68FA68DA613B685A687B68E3
:1018E000DA637B687A691A6200BF1C37BD465DF80F
:1018F000047B7047000001400004014080B487B0C1
:1019000000AF786039607B681B6A3B617B681B6A4B
:1019100023F480527B681A627B685B687B617B681A
:10192000DB69FB60FB6823F4E043FB60FB6823F4A6
:101930004073FB603B681B681B02FA681343FB6043
:101940003B6923F400533B613B689B681B033A6986
:1019500013433B617B68124A934203D07B68114A70
:10196000934209D17B6923F480437B613B685B69C7
:101970009B017A6913437B617B687A695A607B6853
:10198000FA68DA613B685A687B681A647B683A696E
:101990001A6200BF1C37BD465DF8047B704700BF6C
:1019A000000001400004014080B487B000AFF8603F
:1019B000B9607A60FB681B6A7B61FB681B6A23F075
:1019C0000102FB681A62FB689B693B613B6923F07B
:1019D000F0033B617B681B013A6913433B617B6900
:1019E00023F00A037B617A69BB6813437B61FB6860
:1019F0003A699A61FB687A691A6200BF1C37BD4672
:101A00005DF8047B704780B487B000AFF860B960C0
:101A10007A60FB681B6A7B61FB681B6A23F010021B
:101A2000FB681A62FB689B693B613B6923F4704366
:101A30003B617B681B033A6913433B617B6923F07D
:101A4000A0037B61BB681B017A6913437B61FB6860
:101A50003A699A61FB687A691A6200BF1C37BD4611
:101A60005DF8047B704780B485B000AF7860396062
:101A70007B689B68FB60FB6823F07003FB603A683F
:101A8000FB68134343F00703FB607B68FA689A60C6
:101A900000BF1437BD465DF8047B704780B487B043
:101AA00000AFF860B9607A603B60FB689B687B615F
:101AB0007B6923F47F437B613B681A027B681A438E
:101AC000BB6813437A6913437B61FB687A699A6048
:101AD00000BF1C37BD465DF8047B704780B487B0FB
:101AE00000AFF860B9607A60BB6803F01F030122A1
:101AF00002FA03F37B61FB681A6A7B69DB431A40D5
:101B0000FB681A62FB681A6ABB6803F01F037968F6
:101B100001FA03F31A43FB681A6200BF1C37BD4683
:101B20005DF8047B704780B483B000AF786000BF7D
:101B30000C37BD465DF8047B704780B483B000AFBE
:101B4000786000BF0C37BD465DF8047B704780B5F8
:101B500084B000AF78600023FB737B68002B01D159
:101B6000012333E07B681B6C002B09D178684BF0B4
:101B7000B7FF7B6800225A647B68002283F83C2010
:101B80007B681B6C03F01003002B18D17B681B6C67
:101B900023F4885323F0020343F002027B681A64A3
:101BA000786800F0C7FB7B6800225A647B681B6C76
:101BB00023F0030343F001027B681A6401E0012370
:101BC000FB737B68002283F83C20FB7B18461037B0
:101BD000BD4680BD80B485B000AF78600023BB6097
:101BE0007B6893F83C30012B01D10223B2E07B6883
:101BF000012283F83C207B681B689B6803F001038B
:101C0000012B18D07B681B689A687B681B6842F0C0
:101C100001029A60524B1B68524AA2FB03239A0CA2
:101C200013465B001344BB6002E0BB68013BBB6032
:101C3000BB68002BF9D17B681B689B6803F001032C
:101C4000012B7AD17B681B6C23F4E06323F0010342
:101C500043F480727B681A647B681B685B6803F4DA
:101C60008063002B07D07B681B6C23F4405343F444
:101C700080527B681A647B681B6C03F48053B3F555
:101C8000805F06D17B685B6C23F006027B685A6438
:101C900002E07B6800225A647B68002283F83C20C3
:101CA000314BFB607B681B686FF022021A60FB6897
:101CB0005B6803F01F03002B2AD17B681B682B4A4B
:101CC000934215D07B681B68294A934205D1264B65
:101CD0005B6803F01F03002B0AD07B681B68254A52
:101CE000934236D1204B5B6803F01003002B30D1B8
:101CF0007B681B689B6803F04053002B29D17B68ED
:101D00001B689A687B681B6842F080429A6020E0FA
:101D10007B681B68154A93421BD17B681B689B68D4
:101D200003F04053002B14D17B681B689A687B68D2
:101D30001B6842F080429A600BE07B681B6C43F0AA
:101D400010027B681A647B685B6C43F001027B685D
:101D50005A64002318461437BD465DF8047B70476B
:101D60000000002083DE1B430023014000200140CF
:101D7000002101400022014080B584B000AF7860AE
:101D800039600023FB607B681B689B6803F48063F9
:101D9000B3F5806F13D17B681B689B6803F4807375
:101DA000B3F5807F0BD17B681B6C43F020027B680E
:101DB0001A647B68002283F83C20012363E001F071
:101DC00097FFF86021E03B68B3F1FF3F1DD03B680F
:101DD000002B07D001F08CFF0246FB68D31A3A684B
:101DE0009A4212D27B681B681B6803F00203022B25
:101DF0000BD07B681B6C43F004027B681A647B6821
:101E0000002283F83C2003233DE07B681B681B68AD
:101E100003F00203022BD6D17B681B686FF012021D
:101E20001A607B681B6C43F400727B681A647B68E1
:101E30001B689B6803F04053002B23D17B681B7EFB
:101E4000002B1FD17B681B68DB6A03F47003002B37
:101E500006D07B681B689B6803F48063002B11D15C
:101E60007B681B6C23F480727B681A647B681B6C34
:101E700003F48053002B05D17B681B6C43F00102F7
:101E80007B681A64002318461037BD4680BD80B5B4
:101E900086B000AF786000237B6100233B617B68E4
:101EA0001B681B68FB607B681B685B68BB60FB682A
:101EB00003F002037B61BB6803F020033B617B6995
:101EC000002B49D03B69002B46D07B681B6C03F08C
:101ED0001003002B05D17B681B6C43F400727B68F8
:101EE0001A647B681B689B6803F04053002B2BD15E
:101EF0007B681B7E002B27D17B681B68DB6A03F4A1
:101F00007003002B06D07B681B689B6803F480631A
:101F1000002B19D17B681B685A687B681B6822F00C
:101F200020025A607B681B6C23F480727B681A6401
:101F30007B681B6C03F48053002B05D17B681B6C02
:101F400043F001027B681A6478680FF07DF97B68C2
:101F50001B686FF012021A60FB6803F004037B61D8
:101F6000BB6803F080033B617B69002B57D03B6962
:101F7000002B54D07B681B6C03F01003002B05D1A1
:101F80007B681B6C43F400527B681A647B681B6897
:101F90009B6803F44013002B39D17B681B689B6B53
:101FA00003F44013002B06D07B681B689B6803F486
:101FB0008063002B2BD17B681B685B6803F4806314
:101FC000002B24D17B681B689B6803F04053002BD7
:101FD0001DD17B681B7E002B19D17B681B685A685A
:101FE0007B681B6822F080025A607B681B6C23F4BC
:101FF00080527B681A647B681B6C03F48073002B2F
:1020000005D17B681B6C43F001027B681A64786819
:1020100000F08CFA7B681B686FF00C021A60FB689A
:1020200003F001037B61BB6803F040033B617B6904
:10203000002B17D03B69002B14D07B681B681B68F2
:1020400003F00103012B0DD17B681B6C43F480323C
:102050007B681A64786800F037F87B681B686FF05B
:1020600001021A60FB6803F020037B61BB6803F088
:1020700080633B617B69002B15D03B69002B12D03C
:102080007B685B6C43F002027B685A647B681B6868
:102090006FF020021A60786800F020F87B681B68F7
:1020A0006FF020021A6000BF1837BD4680BD80B4B3
:1020B00083B000AF78607B681B68DB6C18460C3718
:1020C000BD465DF8047B704780B483B000AF786094
:1020D00000BF0C37BD465DF8047B704780B483B009
:1020E00000AF786000BF0C37BD465DF8047B7047D9
:1020F00080B485B000AF786039600023BB607B6836
:1021000093F83C30012B01D1022305E17B680122C9
:1021100083F83C203B681B68092B25D97B681B682A
:10212000D9683B681B689BB21A4613465B00134490
:102130001E3B072202FA03F3DA437B681B680A405E
:10214000DA607B681B68D9683B689A683B681B68E3
:102150009BB2184603465B0003441E3B9A407B68D3
:102160001B680A43DA6022E07B681B6819693B68D8
:102170001B689BB21A4613465B001344072202FAFF
:1021800003F3DA437B681B680A401A617B681B68AB
:1021900019693B689A683B681B689BB218460346FE
:1021A0005B0003449A407B681B680A431A613B68E2
:1021B0005B68062B24D87B681B68596B3B685A68A0
:1021C00013469B001344053B1F2202FA03F3DA4334
:1021D0007B681B680A405A637B681B68596B3B68C5
:1021E0001B689BB218463B685A6813469B00134411
:1021F000053B00FA03F27B681B680A435A634CE014
:102200003B685B680C2B24D87B681B68196B3B68A8
:102210005A6813469B001344233B1F2202FA03F320
:10222000DA437B681B680A401A637B681B68196B7A
:102230003B681B689BB218463B685A6813469B0074
:102240001344233B00FA03F27B681B680A431A63BA
:1022500023E07B681B68D96A3B685A6813469B0079
:102260001344413B1F2202FA03F3DA437B681B68E5
:102270000A40DA627B681B68D96A3B681B689BB2BC
:1022800018463B685A6813469B001344413B00FACA
:1022900003F27B681B680A43DA62224BFB607B68AF
:1022A0001B68214A934209D13B681B68122B05D158
:1022B000FB685B6843F48002FB685A607B681B68BC
:1022C000194A934223D13B681B68102B03D03B680B
:1022D0001B68112B1BD1FB685B6843F40002FB6891
:1022E0005A603B681B68102B11D1104B1B68104AB9
:1022F000A2FB03239A0C13469B0013445B00BB60B4
:1023000002E0BB68013BBB60BB68002BF9D17B6876
:10231000002283F83C20002318461437BD465DF8A0
:10232000047B704700230140002001400000002092
:1023300083DE1B4380B485B000AF7860794BFB60CF
:10234000FB685B6823F44032FB685A60FB685A689C
:102350007B685B681A43FB685A607B681B685A6835
:102360007B681B6822F480725A607B681B6859681E
:102370007B681B691A027B681B680A435A607B688A
:102380001B685A687B681B6822F040725A607B6841
:102390001B6859687B689A687B681B680A435A60A7
:1023A0007B681B689A687B681B6822F400629A60ED
:1023B0007B681B6899687B68DA687B681B680A43DE
:1023C0009A607B689B6A584A934222D07B681B685C
:1023D0009A687B681B6822F070629A607B681B6851
:1023E00099687B689A6A7B681B680A439A607B6875
:1023F0001B689A687B681B6822F040529A607B6871
:102400001B6899687B68DA6A7B681B680A439A6074
:102410000FE07B681B689A687B681B6822F070621B
:102420009A607B681B689A687B681B6822F0405240
:102430009A607B681B689A687B681B6822F00202BE
:102440009A607B681B6899687B681B7E5A007B6872
:102450001B680A439A607B6893F82030002B1BD0DE
:102460007B681B685A687B681B6842F400625A608C
:102470007B681B685A687B681B6822F460425A605C
:102480007B681B6859687B685B6A013B5A037B6801
:102490001B680A435A6007E07B681B685A687B68C0
:1024A0001B6822F400625A607B681B68DA6A7B68EA
:1024B0001B6822F47002DA627B681B68D96A7B6849
:1024C000DB69013B1A057B681B680A43DA627B689B
:1024D0001B689A687B681B6822F400729A607B68AC
:1024E0001B6899687B6893F830305A027B681B68D8
:1024F0000A439A607B681B689A687B681B6822F4B1
:1025000080629A607B681B6899687B685B699A0245
:102510007B681B680A439A6000BF1437BD465DF8AC
:10252000047B7047002301400100000F80B483B09A
:1025300000AF786000BF0C37BD465DF8047B704784
:1025400080B586B000AF78607B68002B01D1012395
:1025500067E27B681B6803F00103002B75D0884B92
:102560009B6803F00C03042B0CD0854B9B6803F095
:102570000C03082B12D1824B5B6803F48003B3F584
:10258000800F0BD17E4B1B6803F40033002B5BD014
:102590007B685B68002B57D1012342E27B685B6854
:1025A000B3F5803F06D1764B1B68754A43F4803300
:1025B00013601DE07B685B68B3F5A02F0CD1704BF6
:1025C0001B686F4A43F4802313606D4B1B686C4A91
:1025D00043F4803313600BE0694B1B68684A23F4B3
:1025E00080331360664B1B68654A23F480231360B5
:1025F0007B685B68002B13D001F07AFB386108E040
:1026000001F076FB02463B69D31A642B01D9032300
:1026100007E25B4B1B6803F40033002BF0D014E09F
:1026200001F066FB386108E001F062FB02463B699D
:10263000D31A642B01D90323F3E1514B1B6803F434
:102640000033002BF0D100E000BF7B681B6803F073
:102650000203002B63D04A4B9B6803F00C03002B52
:102660000BD0474B9B6803F00C03082B1CD1444B49
:102670005B6803F48003002B16D1414B1B6803F009
:102680000203002B05D07B68DB68012B01D00123FE
:10269000C7E13B4B1B6823F0F8027B681B69DB003A
:1026A000374913430B603AE07B68DB68002B20D08E
:1026B000344B01221A6001F01BFB386108E001F085
:1026C00017FB02463B69D31A022B01D90323A8E169
:1026D0002B4B1B6803F00203002BF0D0284B1B6828
:1026E00023F0F8027B681B69DB00254913430B606C
:1026F00015E0244B00221A6001F0FAFA386108E074
:1027000001F0F6FA02463B69D31A022B01D90323E2
:1027100087E11B4B1B6803F00203002BF0D17B68A1
:102720001B6803F00803002B36D07B685B69002B25
:1027300016D0154B01221A6001F0DAFA386108E070
:1027400001F0D6FA02463B69D31A022B01D90323C2
:1027500067E10B4B5B6F03F00203002BF0D01BE033
:10276000094B00221A6001F0C3FA38610EE001F053
:10277000BFFA02463B69D31A022B07D9032350E163
:102780000038024000004742800E4742884B5B6F92
:1027900003F00203002BEAD17B681B6803F00403FB
:1027A000002B00F097800023FB75814B1B6C03F01E
:1027B0008053002B0FD10023BB607D4B1B6C7C4AE8
:1027C00043F0805313647A4B1B6C03F08053BB605F
:1027D000BB680123FB75774B1B6803F48073002BE8
:1027E00018D1744B1B68734A43F48073136001F073
:1027F0007FFA386108E001F07BFA02463B69D31AA0
:10280000022B01D903230CE16A4B1B6803F480738C
:10281000002BF0D07B689B68012B06D1644B1B6FAB
:10282000634A43F0010313671CE07B689B68052B38
:102830000CD15F4B1B6F5E4A43F0040313675C4B84
:102840001B6F5B4A43F0010313670BE0584B1B6F90
:10285000574A23F001031367554B1B6F544A23F06B
:10286000040313677B689B68002B15D001F040FAC6
:1028700038610AE001F03CFA02463B69D31A41F2A2
:102880008832934201D90323CBE0494B1B6F03F0FD
:102890000203002BEED014E001F02AFA38610AE0BE
:1028A00001F026FA02463B69D31A41F2883293427C
:1028B00001D90323B5E03E4B1B6F03F00203002B4D
:1028C000EED1FB7D012B05D1394B1B6C384A23F02F
:1028D000805313647B689B69002B00F0A180344B0C
:1028E0009B6803F00C03082B5CD07B689B69022B70
:1028F00041D1314B00221A6001F0FAF9386108E049
:1029000001F0F6F902463B69D31A022B01D90323E1
:1029100087E0274B1B6803F00073002BF0D17B6826
:10292000DA697B681B6A1A437B685B6A9B011A43FE
:102930007B689B6A5B08013B1B041A437B68DB6A6C
:102940001B061B4913434B601B4B01221A6001F00D
:10295000CFF9386108E001F0CBF902463B69D31AA0
:10296000022B01D903235CE0114B1B6803F00073B9
:10297000002BF0D054E0104B00221A6001F0B8F99F
:10298000386108E001F0B4F902463B69D31A022B22
:1029900001D9032345E0064B1B6803F00073002BAD
:1029A000F0D13DE07B689B69012B07D1012338E022
:1029B0000038024000700040600047421B4B5B68DB
:1029C000FB607B689B69012B28D0FB6803F48002C5
:1029D0007B68DB699A4221D1FB6803F03F027B6888
:1029E0001B6A9A421AD1FA6847F6C07313407A6894
:1029F000526A9201934211D1FB6803F440327B6822
:102A00009B6A5B08013B1B049A4207D1FB6803F0F9
:102A100070627B68DB6A1B069A4201D0012300E0EA
:102A2000002318461837BD4680BD00BF003802405D
:102A300080B584B000AF786039607B68002B01D12D
:102A40000123CCE0684B1B6803F007033A689A4205
:102A50000CD9654B3A68D2B21A70634B1B6803F00D
:102A600007033A689A4201D00123B8E07B681B68EB
:102A700003F00203002B20D07B681B6803F00403E3
:102A8000002B05D0594B9B68584A43F4E0539360A0
:102A90007B681B6803F00803002B05D0534B9B6831
:102AA000524A43F460439360504B9B6823F0F0021A
:102AB0007B689B684D4913438B607B681B6803F000
:102AC0000103002B44D07B685B68012B07D1474B87
:102AD0001B6803F40033002B19D101237FE07B68CE
:102AE0005B68022B03D07B685B68032B07D13F4BED
:102AF0001B6803F00073002B09D101236FE03B4BEF
:102B00001B6803F00203002B01D1012367E0374B60
:102B10009B6823F003027B685B68344913438B6036
:102B200001F0E6F8F8600AE001F0E2F80246FB681E
:102B3000D31A41F28832934201D903234FE02B4B41
:102B40009B6803F00C027B685B689B009A42EBD1A8
:102B5000254B1B6803F007033A689A420CD2224BBC
:102B60003A68D2B21A70204B1B6803F007033A6828
:102B70009A4201D0012332E07B681B6803F0040312
:102B8000002B08D0194B9B6823F4E0527B68DB686C
:102B9000164913438B607B681B6803F00803002B06
:102BA00009D0124B9B6823F460427B681B69DB00F1
:102BB0000E4913438B6000F021F802460B4B9B68D3
:102BC0001B0903F00F030A49CB5C22FA03F3094AFD
:102BD0001360094B1B6818464BF094FD0023184600
:102BE0001037BD4680BD00BF003C024000380240A7
:102BF0002C6A050800000020040000202DE9B04FD9
:102C000094B000AF00237B640023FB6400233B648B
:102C10000023BB64794B9B6803F00C03082B0DD099
:102C2000082B00F2E180002B02D0042B03D0DBE064
:102C3000734BBB64DBE0734BBB64D8E06F4B5B68EA
:102C400003F03F037B646D4B5B6803F48003002B50
:102C500063D06A4B5B689B090022BB63FA63BB6B62
:102C6000C3F308033B6300237B63D7E90C4522468B
:102C70002B464FF000004FF00001590141EAD261AC
:102C8000500102460B462146511A3961294663EB31
:102C900001037B614FF000024FF00003D7E904AB62
:102CA00059468B01514643EA916351468A01514688
:102CB000B2EB0108594663EB01094FF000024FF0F7
:102CC00000034FEAC90343EA58734FEAC80290462B
:102CD0009946234618EB0303BB602B4649EB0303DD
:102CE000FB604FF000024FF00003D7E90245294690
:102CF0004B02214643EAD15321464A021046194667
:102D00007B6C0022BB62FA62D7E90A23FDF766FDFD
:102D100002460B461346FB6458E0384B5B689B0940
:102D2000002218461146C0F308033B6200237B6271
:102D3000D7E9088942464B464FF000004FF00001AA
:102D4000590141EAD261500102460B464146B2EBBD
:102D5000010A494663EB010B4FF000024FF00003FC
:102D60004FEA8B1343EA9A634FEA8A12B2EB0A04E2
:102D700063EB0B054FF000024FF00003EB0043EA5A
:102D80005473E20014461D464346E3183B604B462D
:102D900045EB03037B604FF000024FF00003D7E9DF
:102DA000004529468B02214643EA915321468A0277
:102DB000104619467B6C0022BB61FA61D7E90623F5
:102DC000FDF70CFD02460B461346FB640B4B5B689C
:102DD0001B0C03F0030301335B003B64FA6C3B6C98
:102DE000B2FBF3F3BB6402E0054BBB6400BFBB6CFA
:102DF00018465037BD46BDE8B08F00BF00380240CE
:102E00000024F40000127A0080B400AF034B1B686A
:102E10001846BD465DF8047B704700BF00000020E7
:102E200080B500AFFFF7F0FF0246054B9B689B0A99
:102E300003F007030349CB5C22FA03F3184680BD75
:102E4000003802403C6A050880B500AFFFF7DCFFA0
:102E50000246054B9B685B0B03F007030349CB5C01
:102E600022FA03F3184680BD003802403C6A050888
:102E700080B483B000AF786039607B680F221A603D
:102E8000124B9B6803F003027B685A600F4B9B68F0
:102E900003F0F0027B689A600C4B9B6803F4E052ED
:102EA0007B68DA60094B9B68DB0803F4E0527B68BF
:102EB0001A61074B1B6803F007023B681A6000BFEA
:102EC0000C37BD465DF8047B704700BF00380240F8
:102ED000003C024080B489B000AF786039600023C4
:102EE0007B6100233B610023BB610023FB616BE13D
:102EF0000122FB6902FA03F37B613B681B687A6974
:102F000013403B613A697B699A4240F05A813B68C1
:102F10005B6803F00303012B05D03B685B6803F09B
:102F20000303022B30D17B689B68BB61FB695B00AC
:102F3000032202FA03F3DB43BA691340BB613B6827
:102F4000DA68FB695B0002FA03F3BA691343BB61F9
:102F50007B68BA699A607B685B68BB610122FB6928
:102F600002FA03F3DB43BA691340BB613B685B6859
:102F70001B0903F00102FB6902FA03F3BA69134368
:102F8000BB617B68BA695A603B685B6803F0030306
:102F9000032B17D07B68DB68BB61FB695B000322F6
:102FA00002FA03F3DB43BA691340BB613B689A68DA
:102FB000FB695B0002FA03F3BA691343BB617B68E8
:102FC000BA69DA603B685B6803F00303022B23D124
:102FD000FB69DA087B68083253F82230BB61FB6971
:102FE00003F007039B000F2202FA03F3DB43BA69E5
:102FF0001340BB613B681A69FB6903F007039B0040
:1030000002FA03F3BA691343BB61FB69DA087B6810
:103010000832B96943F822107B681B68BB61FB6901
:103020005B00032202FA03F3DB43BA691340BB617E
:103030003B685B6803F00302FB695B0002FA03F381
:10304000BA691343BB617B68BA691A603B685B6805
:1030500003F44033002B00F0B4800023FB60604B8E
:103060005B6C5F4A43F4804353645D4B5B6C03F4D9
:103070008043FB60FB685B4AFB699B08023352F8A4
:103080002330BB61FB6903F003039B000F2202FAAC
:1030900003F3DB43BA691340BB617B68524A934236
:1030A0002BD07B68514A934225D07B68504A93428B
:1030B0001FD07B684F4A934219D07B684E4A934297
:1030C00013D07B684D4A93420DD07B684C4A9342A3
:1030D00007D07B684B4A934201D107230EE00823B7
:1030E0000CE006230AE0052308E0042306E003239E
:1030F00004E0022302E0012300E00023FA6902F069
:10310000030292009340BA691343BB613549FB69DE
:103110009B080233BA6941F823203B4B9B68BB6193
:103120003B69DB43BA691340BB613B685B6803F4EE
:103130008013002B03D0BA693B691343BB61324A49
:10314000BB699360304BDB68BB613B69DB43BA69A9
:103150001340BB613B685B6803F40013002B03D092
:10316000BA693B691343BB61274ABB69D360264BED
:103170005B68BB613B69DB43BA691340BB613B6879
:103180005B6803F40033002B03D0BA693B69134337
:10319000BB611D4ABB6953601B4B1B68BB613B692C
:1031A000DB43BA691340BB613B685B6803F480335F
:1031B000002B03D0BA693B691343BB61124ABB6958
:1031C0001360FB690133FB61FB690F2B7FF690AE47
:1031D00000BF00BF2437BD465DF8047B704700BFC9
:1031E0000038024000380140000002400004024064
:1031F00000080240000C024000100240001402408F
:1032000000180240001C0240003C014080B485B020
:1032100000AF78600B467B807B681A697B8813401F
:10322000002B02D00123FB7301E00023FB73FB7B27
:1032300018461437BD465DF8047B704780B483B0F0
:1032400000AF78600B467B8013467B707B78002B49
:1032500003D07A887B689A6103E07B881A047B68D4
:103260009A6100BF0C37BD465DF8047B704780B49F
:1032700085B000AF78600B467B807B685B69FB6044
:103280007A88FB6813401A04FB68D9437B880B409B
:103290001A437B689A6100BF1437BD465DF8047B12
:1032A0007047000080B586B000AF786000237B6176
:1032B00000F01EFD38617B68002B01D1012399E0ED
:1032C0007B68022283F835207B68002283F8342053
:1032D0007B681B681A687B681B6822F001021A6011
:1032E0000FE000F005FD02463B69D31A052B08D913
:1032F0007B6820225A657B68032283F835200323EC
:1033000078E07B681B681B6803F00103002BE8D1A1
:103310007B681B681B687B617A69384B13407B6153
:103320007B685A687B689B681A437B68DB681A4332
:103330007B681B691A437B685B691A437B689B69DE
:103340001A437B68DB691A437B681B6A13437A69FB
:1033500013437B617B685B6A042B07D17B68DA6A65
:103360007B681B6B13437A6913437B617B681B6823
:103370007A691A607B681B685B697B617B6923F0F3
:1033800007037B617B685B6A7A6913437B617B68B7
:103390005B6A042B17D17B689B6A7A6913437B6154
:1033A0007B68DB6A002B0ED0786800F00DFB0346CB
:1033B000002B08D07B6840225A657B68012283F885
:1033C0003520012316E07B681B687A695A617868AA
:1033D00000F0C4FA0346FB607B68DB6D3F229A4035
:1033E000FB689A607B6800225A657B68012283F83B
:1033F0003520002318461837BD4680BD3F8010F0A9
:1034000080B586B000AFF860B9607A603B60002399
:10341000FB75FB689B6D3B61FB6893F83430012BB7
:1034200001D1022340E0FB68012283F83420FB68CD
:1034300093F83530DBB2012B2FD1FB68022283F8E1
:103440003520FB6800225A653B687A68B968F868DD
:1034500000F056FAFB68DB6D3F229A403B699A60A8
:10346000FB681B681A68FB681B6842F016021A604A
:10347000FB681B6C002B07D0FB681B681A68FB6895
:103480001B6842F008021A60FB681B681A68FB6838
:103490001B6842F001021A6005E0FB68002283F815
:1034A00034200223FB75FB7D18461837BD4680BDCE
:1034B00080B584B000AF78607B689B6DFB6000F0E6
:1034C00017FCB8607B6893F83530DBB2022B08D06C
:1034D0007B6880225A657B68002283F834200123B0
:1034E00052E07B681B681A687B681B6822F0160232
:1034F0001A607B681B685A697B681B6822F080022F
:103500005A617B681B6C002B03D17B689B6C002B82
:1035100007D07B681B681A687B681B6822F008026A
:103520001A607B681B681A687B681B6822F00102BE
:103530001A6013E000F0DCFB0246BB68D31A052BCF
:103540000CD97B6820225A657B68032283F83520DA
:103550007B68002283F83420032315E07B681B6816
:103560001B6803F00103002BE4D17B68DB6D3F2275
:103570009A40FB689A607B68012283F835207B685B
:10358000002283F83420002318461037BD4680BD42
:1035900080B483B000AF78607B6893F83530DBB2DD
:1035A000022B04D07B6880225A6501230CE07B68E3
:1035B000052283F835207B681B681A687B681B68C6
:1035C00022F001021A60002318460C37BD465DF850
:1035D000047B704780B586B000AF78600023BB6085
:1035E0008E4B1B688E4AA2FB03239B0A7B617B6880
:1035F0009B6D3B613B691B68FB607B68DB6D082250
:103600009A40FB681340002B1AD07B681B681B682C
:1036100003F00403002B13D07B681B681A687B68D7
:103620001B6822F004021A607B68DB6D08229A4056
:103630003B699A607B685B6D43F001027B685A6569
:103640007B68DB6D01229A40FB681340002B12D08F
:103650007B681B685B6903F08003002B0BD07B68E1
:10366000DB6D01229A403B699A607B685B6D43F099
:1036700002027B685A657B68DB6D04229A40FB6816
:103680001340002B12D07B681B681B6803F00203F9
:10369000002B0BD07B68DB6D04229A403B699A605B
:1036A0007B685B6D43F004027B685A657B68DB6D69
:1036B00010229A40FB681340002B43D07B681B68A4
:1036C0001B6803F00803002B3CD07B68DB6D1022E5
:1036D0009A403B699A607B681B681B6803F48023EF
:1036E000002B18D07B681B681B6803F40023002B99
:1036F00008D17B681B6C002B24D07B681B6C78681E
:1037000098471FE07B689B6C002B1BD07B689B6CF1
:103710007868984716E07B681B681B6803F4807321
:10372000002B07D17B681B681A687B681B6822F036
:1037300008021A607B681B6C002B03D07B681B6C33
:10374000786898477B68DB6D20229A40FB681340BD
:10375000002B00F08F807B681B681B6803F0100350
:10376000002B00F087807B68DB6D20229A403B694C
:103770009A607B6893F83530DBB2052B36D17B68D5
:103780001B681A687B681B6822F016021A607B6847
:103790001B685A697B681B6822F080025A617B684B
:1037A0001B6C002B03D17B689B6C002B07D07B68C4
:1037B0001B681A687B681B6822F008021A607B6825
:1037C000DB6D3F229A403B699A607B68012283F857
:1037D00035207B68002283F834207B681B6D002B2A
:1037E0007ED07B681B6D7868984779E07B681B68A2
:1037F0001B6803F48023002B1DD07B681B681B68AB
:1038000003F40023002B0DD17B685B6C002B31D0BF
:103810007B685B6C786898472CE000BF0000002054
:10382000B5814E1B7B68DB6B002B23D07B68DB6B89
:10383000786898471EE07B681B681B6803F48073F8
:10384000002B0FD17B681B681A687B681B6822F00D
:1038500010021A607B68012283F835207B68002201
:1038600083F834207B68DB6B002B03D07B68DB6B39
:10387000786898477B685B6D002B32D07B685B6D06
:1038800003F00103002B22D07B68052283F835204A
:103890007B681B681A687B681B6822F001021A604B
:1038A000BB680133BB607A699A4207D37B681B68A7
:1038B0001B6803F00103002BF2D100E000BF7B681E
:1038C000012283F835207B68002283F834207B684E
:1038D000DB6C002B05D07B68DB6C7868984700E0D8
:1038E00000BF1837BD4680BD80B483B000AF78609C
:1038F0007B685B6D18460C37BD465DF8047B7047EE
:1039000080B485B000AFF860B9607A603B60FB6856
:103910001B681A68FB681B6822F480221A60FB6827
:103920001B683A685A60FB689B68402B08D1FB68AB
:103930001B687A689A60FB681B68BA68DA6007E0FF
:10394000FB681B68BA689A60FB681B687A68DA6073
:1039500000BF1437BD465DF8047B704780B485B066
:1039600000AF78607B681B68DBB2103B144AA2FB97
:1039700003231B09FB60134AFB6813441B781A4698
:103980007B68DA65FB68032B09D97B681B6823F425
:103990007F7323F003031A1D7B689A6507E07B6839
:1039A0001B6823F47F7323F003037A6893657B68B5
:1039B0009B6D18461437BD465DF8047B704700BF09
:1039C000ABAAAAAA446A050880B485B000AF7860A3
:1039D0000023FB737B689B6ABB607B689B69002B41
:1039E0001FD1BB68032B56D801A252F823F000BFA9
:1039F000013A0008133A0008013A0008973A000813
:103A00007B68DB6A03F08073002B46D00123FB73D5
:103A100043E07B68DB6AB3F1C07F40D10123FB73D5
:103A20003DE07B689B69B3F5005F21D1BB68032B48
:103A300037D801A252F823F0493A00084F3A00085B
:103A4000493A0008613A00080123FB7330E07B68C3
:103A5000DB6A03F08073002B25D00123FB7322E087
:103A60007B68DB6AB3F1C07F1FD10123FB731CE0CD
:103A7000BB68022B03D9BB68032B03D018E00123DA
:103A8000FB7315E07B68DB6A03F08073002B0ED0BC
:103A90000123FB730BE000BF0AE000BF08E000BF9A
:103AA00006E000BF04E000BF02E000BF00E000BF8E
:103AB000FB7B18461437BD465DF8047B704700BF9A
:103AC00080B485B000AF78607B6803F00703FB60CB
:103AD0000C4BDB68BB60BA684FF6FF031340BB605A
:103AE000FB681A02BB68134343F0BF6343F400331F
:103AF000BB60044ABB68D36000BF1437BD465DF8A5
:103B0000047B704700ED00E080B400AF044BDB683D
:103B10001B0A03F007031846BD465DF8047B704797
:103B200000ED00E080B483B000AF0346FB7197F96D
:103B30000730002B0BDBFB7903F01F02074997F9D5
:103B400007305B09012000FA02F241F8232000BF90
:103B50000C37BD465DF8047B704700BF00E100E014
:103B600080B483B000AF03463960FB7197F907302A
:103B7000002B0ADB3B68DAB20C4997F907301201D7
:103B8000D2B20B4483F800230AE03B68DAB208495A
:103B9000FB7903F00F03043B1201D2B20B441A76F7
:103BA00000BF0C37BD465DF8047B704700E100E0C4
:103BB00000ED00E080B489B000AFF860B9607A60D1
:103BC000FB6803F00703FB61FB69C3F10703042BE8
:103BD00028BF0423BB61FB690433062B02D9FB69B0
:103BE000033B00E000237B614FF0FF32BB6902FA28
:103BF00003F3DA43BB681A407B699A404FF0FF3108
:103C00007B6901FA03F3D9437B680B4013431846E1
:103C10002437BD465DF8047B704780B582B000AFA5
:103C200078607868FFF74CFF00BF0837BD4680BD5D
:103C300080B586B000AF0346B9607A60FB7300239D
:103C40007B61FFF761FF78617A68B9687869FFF78F
:103C5000B1FF024697F90F3011461846FFF780FF73
:103C600000BF1837BD4680BD80B582B000AF0346A7
:103C7000FB7197F907301846FFF754FF00BF08376C
:103C8000BD4680BD80B500AF0E4B1B680D4A43F4A6
:103C9000007313600B4B1B680A4A43F48063136084
:103CA000084B1B68074A43F4807313600320FFF737
:103CB000B4FF0F204AF026FD4AF0F8FC0023184616
:103CC00080BD00BF003C024080B400AF064B1B78B3
:103CD0001A46064B1B681344044A136000BFBD46D6
:103CE0005DF8047B704700BF08000020B40100208D
:103CF00080B400AF034B1B681846BD465DF8047BDB
:103D0000704700BFB401002080B584B000AF786078
:103D1000FFF7EEFFB8607B68FB60FB68B3F1FF3F25
:103D200005D00A4B1B781A46FB681344FB6000BFA2
:103D3000FFF7DEFF0246BB68D31AFA689A42F7D84B
:103D400000BF00BF1037BD4680BD00BF0800002087
:103D500080B487B000AF786039603B681A687B68D0
:103D600053F822303A68126823F001017B6843F867
:103D700022103B689B68082B02D140237B6101E045
:103D800000237B613B685A687B691A433B689B68E8
:103D90001A433B68DB681A433B681B691A433B685C
:103DA0005B691A433B68DB691A433B681B6A1A4329
:103DB0003B685B6A1A433B689B6A1A433B68DB6A51
:103DC0001A433B681B6B13433B613B689B693A6931
:103DD00013433B613B68DB6B3A6913433B61104B18
:103DE000FB60FB6843F48063FB60FB6843F4E02303
:103DF000FB603B681A687B6853F82220FB68DB4352
:103E000002EA03013B681A683B6919437B6843F87F
:103E10002210002318461C37BD465DF8047B70470E
:103E20007FFB080080B485B000AFF860B9607A60AD
:103E3000BB681A68BB685B681B011A43BB689B6858
:103E40001B021A43BB68DB681B041A43BB681B696F
:103E5000013B1B051A43BB685B69023B1B0642EA38
:103E60000301BB689B697A6801321943FB6843F818
:103E70002210002318461437BD465DF8047B7047B6
:103E800080B485B000AFF860B9607A603B603B6891
:103E9000B3F5804F1DD1FB687A6853F82220134B8D
:103EA0001340BA681168BA68526812011143BA68BF
:103EB000926812021143BA6892691143BA68D268D3
:103EC00012040A4343EA0201FB687A6843F82210AD
:103ED00005E0FB687A686FF0704143F82210002318
:103EE00018461437BD465DF8047B70470000F0CFDC
:103EF00080B584B000AFF860B9607A60FB68002BD1
:103F000001D1012338E0FB6893F84930DBB2002B84
:103F100006D1FB68002283F84820F86849F096FF34
:103F2000FB681A68FB68083319461046FFF710FF54
:103F3000FB681868FB689B681A46B968FFF772FF50
:103F4000FB685868FB689A68FB681B6B7968FFF729
:103F500097FFFB681B68FA68926853F82210FB68A9
:103F60001B68FA68926841F0010143F82210FB686F
:103F7000012283F84920002318461037BD4680BD32
:103F800080B582B000AF78607B68002B01D101233F
:103F90007BE07B685B6A002B08D17B685B68B3F5CC
:103FA000827F09D07B680022DA6105E07B6800220D
:103FB0001A617B6800225A617B6800229A627B68E2
:103FC00093F85130DBB2002B06D17B68002283F8D6
:103FD0005020786849F07AFF7B68022283F85120EC
:103FE0007B681B681A687B681B6822F040021A60B5
:103FF0007B685B6803F482727B689B6803F404430C
:104000001A437B68DB6803F400631A437B681B690F
:1040100003F002031A437B685B6903F001031A4350
:104020007B689B6903F400731A437B68DB6903F0C8
:1040300038031A437B681B6A03F0800342EA0301DA
:104040007B689B6A03F400527B681B680A431A6012
:104050007B689B691B0C03F004017B685B6A03F0BF
:1040600010027B681B680A435A607B681B68DA6928
:104070007B681B6822F40062DA617B6800225A6563
:104080007B68012283F85120002318460837BD467B
:1040900080BD80B588B000AFF860B9603B60134662
:1040A000FB80FFF725FEF861FB887B83FB6893F8B4
:1040B0005130DBB2012B01D002232AE1BB68002B77
:1040C00002D0FB88002B01D1012322E1FB6893F889
:1040D0005030012B01D102231BE1FB68012283F840
:1040E0005020FB68032283F85120FB6800225A65A8
:1040F000FB68BA681A63FB68FA889A86FB68FA88D4
:10410000DA86FB6800229A63FB6800229A87FB68C4
:104110000022DA87FB6800225A64FB6800221A64D6
:10412000FB689B68B3F5004F0FD1FB681B681A68EA
:10413000FB681B6822F040021A60FB681B681A6863
:10414000FB681B6842F480421A60FB681B681B68AE
:1041500003F04003402B07D0FB681B681A68FB681C
:104160001B6842F040021A60FB68DB68B3F5006F21
:1041700052D1FB685B68002B02D07B8B012B45D1B1
:10418000FB681B6B1A88FB681B68DA60FB681B6B9B
:104190009A1CFB681A63FB68DB8E9BB2013B9AB2E8
:1041A000FB68DA8632E0FB681B689B6803F0020359
:1041B000022B12D1FB681B6B1A88FB681B68DA6044
:1041C000FB681B6B9A1CFB681A63FB68DB8E9BB257
:1041D000013B9AB2FB68DA8618E0FFF789FD0246D8
:1041E000FB69D31A3A689A4203D83B68B3F1FF3FA0
:1041F00002D13B68002B09D1FB68012283F85120D2
:10420000FB68002283F85020032382E0FB68DB8EEA
:104210009BB2002BC7D153E0FB685B68002B02D038
:104220007B8B012B47D1FB681A6BFB681B680C3337
:1042300012781A70FB681B6B5A1CFB681A63FB68C8
:10424000DB8E9BB2013B9AB2FB68DA8633E0FB68F7
:104250001B689B6803F00203022B13D1FB681A6BE7
:10426000FB681B680C3312781A70FB681B6B5A1CB6
:10427000FB681A63FB68DB8E9BB2013B9AB2FB685A
:10428000DA8618E0FFF734FD0246FB69D31A3A6874
:104290009A4203D83B68B3F1FF3F02D13B68002B41
:1042A00009D1FB68012283F85120FB68002283F8C2
:1042B000502003232DE0FB68DB8E9BB2002BC6D180
:1042C000FA693968F86800F0B1F80346002B02D0AB
:1042D000FB6820225A65FB689B68002B0AD10023EB
:1042E0007B61FB681B68DB687B61FB681B689B6804
:1042F0007B617B69FB68012283F85120FB68002207
:1043000083F85020FB685B6D002B01D0012300E097
:10431000002318462037BD4680BD000080B588B018
:1043200000AFF860B9603B601346FB71FFF7E0FC3B
:104330000246BB6A9B1A3A681344FB61FFF7D8FC3C
:10434000B861394B1B685B011B0DFA6902FB03F373
:104350007B6155E03B68B3F1FF3F51D0FFF7C8FCEC
:104360000246BB69D31AFA699A4202D9FB69002B4B
:104370003DD1FB681B685A68FB681B6822F0E002AD
:104380005A60FB685B68B3F5827F11D1FB689B685C
:10439000B3F5004F04D0FB689B68B3F5806F07D17D
:1043A000FB681B681A68FB681B6822F040021A60F1
:1043B000FB689B6AB3F5005F0FD1FB681B681A6846
:1043C000FB681B6822F400521A60FB681B681A68BD
:1043D000FB681B6842F400521A60FB68012283F8F4
:1043E0005120FB68002283F85020032318E07B69EA
:1043F000002B02D10023FB6102E07B69013B7B6162
:10440000FB681B689A68BB681340BA689A420CBF85
:1044100001230023DBB21A46FB799A429AD100238A
:1044200018462037BD4680BD0000002080B588B00A
:1044300002AFF860B9607A607B680093BB680122C4
:104440000221F868FFF76AFF0346002B07D0FB68DC
:104450005B6D43F02002FB685A65032332E01B4B7F
:104460001B681B4AA2FB03235B0D4FF47A7202FB0D
:1044700003F37B61FB685B68B3F5827F12D17B68D5
:104480000093BB6800228021F868FFF747FF0346CE
:10449000002B16D0FB685B6D43F02002FB685A6569
:1044A00003230FE07B69002B0AD07B69013B7B6112
:1044B000FB681B689B6803F08003802BF2D000E050
:1044C00000BF002318461837BD4680BD00000020FD
:1044D000819F5E1680B582B000AF78607B68002B4C
:1044E00001D1012342E07B6893F84130DBB2002B1D
:1044F00006D17B68002283F84020786849F06EFE80
:104500007B68242283F841207B681B68DA687B681B
:104510001B6822F40052DA60786801F009FA7B68BF
:104520001B681A697B681B6822F490421A617B68D9
:104530001B685A697B681B6822F02A025A617B68F3
:104540001B68DA687B681B6842F40052DA607B689B
:1045500000225A647B68202283F841207B68202255
:1045600083F842207B6800225A63002318460837EC
:10457000BD4680BD80B58AB002AFF860B9603B60CF
:104580001346FB8000237B61FB6893F84130DBB26C
:10459000202B75D1BB68002B02D0FB88002B01D1EA
:1045A00001236EE0FB6800225A64FB68212283F835
:1045B0004120FFF79DFB7861FB68FA889A84FB68CD
:1045C000FA88DA84FB689B68B3F5805F08D1FB68E2
:1045D0001B69002B04D10023FB61BB68BB6103E0B6
:1045E000BB68FB610023BB612EE03B6800937B69E5
:1045F00000228021F86800F0A0FE0346002B05D0C1
:10460000FB68202283F8412003233AE0FB69002B5A
:104610000BD1BB691B881A46FB681B68C2F30802F2
:104620005A60BB690233BB6107E0FB691A78FB681B
:104630001B685A60FB690133FB61FB68DB8C9BB232
:10464000013B9AB2FB68DA84FB68DB8C9BB2002BDF
:10465000CBD13B6800937B6900224021F86800F0D1
:104660006CFE0346002B05D0FB68202283F8412016
:10467000032306E0FB68202283F84120002300E0AA
:10468000022318462037BD4680BD80B584B000AFF8
:10469000F860B9601346FB80FB6893F84230DBB2E8
:1046A000202B12D1BB68002B02D0FB88002B01D13C
:1046B00001230BE0FB6800221A63FB881A46B968E5
:1046C000F86800F093FE034600E002231846103716
:1046D000BD4680BD80B58CB000AFF860B9601346B0
:1046E000FB80FB6893F84130DBB2202B62D1BB68C2
:1046F000002B02D0FB88002B01D101235BE0BA68BC
:10470000FB681A62FB68FA889A84FB68FA88DA8484
:10471000FB6800225A64FB68212283F84120FB6871
:104720009B6B274ADA63FB689B6B264A1A64FB681B
:104730009B6B254ADA64FB689B6B00221A6507F1C4
:104740000803FB62FB68986BFB6A1968FB681B68CF
:1047500004331A46FB88FEF753FE0346002B08D0AD
:10476000FB6810225A64FB68202283F84120012351
:1047700021E0FB681B686FF040021A60FB681B6851
:104780001433BB61BB6953E8003F7B617B6943F035
:104790008003BB62FB681B681433BA6A7A623B62AF
:1047A000396A7A6A41E80023FB61FB69002BE5D195
:1047B000002300E0022318463037BD4680BD00BF0D
:1047C0008950000823510008A752000880B584B022
:1047D00000AFF860B9601346FB80FB6893F8423085
:1047E000DBB2202B12D1BB68002B02D0FB88002B40
:1047F00001D101230BE0FB6800221A63FB881A46F3
:10480000B968F86800F02CFE034600E00223184661
:104810001037BD4680BD80B590B000AF78600023F2
:10482000FB637B681B685B6903F08003802B0CBF14
:1048300001230023DBB2FB637B6893F84130DBB2DA
:10484000212B28D1FB6B002B25D07B681B681433F0
:104850007B627B6A53E8003F3B623B6A23F0800344
:10486000BB637B681B681433BA6B3A63FB62F96AFB
:104870003A6B41E80023BB62BB6A002BE5D17B6841
:104880009B6B002B04D07B689B6B1846FEF710FED9
:10489000786800F08BFE7B681B685B6903F040035F
:1048A000402B0CBF01230023DBB2FB637B6893F832
:1048B0004230DBB2222B28D1FB6B002B25D07B684A
:1048C0001B6814333B613B6953E8003FFB60FB68A6
:1048D00023F040037B637B681B6814337A6BFA61B7
:1048E000BB61B969FA6941E800237B617B69002BF0
:1048F000E5D17B68DB6B002B04D07B68DB6B184653
:10490000FEF7D6FD786800F079FE002318464037A0
:10491000BD4680BD80B58CB000AFF860B96013466D
:10492000FB80FB6893F84230DBB2202B46D1BB689A
:10493000002B02D0FB88002B01D101233FE0FB6854
:1049400001221A63FB6800225A63FB881A46B96881
:10495000F86800F085FD034687F82F30FB681B6B75
:10496000012B25D100233B61FB681B681B683B6161
:10497000FB681B685B683B613B69FB681B680C3329
:10498000BB61BB6953E8003F7B617B6943F0100367
:10499000BB62FB681B680C33BA6A7A623B62396A95
:1049A0007A6A41E80023FB61FB69002BE5D102E054
:1049B000012387F82F3097F82F3000E002231846A4
:1049C0003037BD4680BD80B59AB000AF78607B6857
:1049D0001B680C33BB64BB6C53E8003F7B647B6C8F
:1049E00023F490737B667B681B680C337A6E7A6560
:1049F0003B65396D7A6D41E80023FB64FB6C002B4D
:104A0000E5D17B681B6814337B637B6B53E8003F05
:104A10003B633B6B23F001033B667B681B681433ED
:104A20003A6E3A64FB63F96B3A6C41E80023BB636E
:104A3000BB6B002BE5D17B681B6B012B19D17B680D
:104A40001B680C333B623B6A53E8003FFB61FB6928
:104A500023F01003FB657B681B680C33FA6DFA6268
:104A6000BB62B96AFA6A41E800237B627B6A002B69
:104A7000E5D17B681B685B6903F04003402B36D1AE
:104A80007B681B681433FB60FB6853E8003FBB6026
:104A9000BB6823F04003BB657B681B681433BA6DA9
:104AA000BA617B617969BA6941E800233B613B697E
:104AB000002BE5D17B68DB6B002B18D07B68DB6BB0
:104AC00000221A657B68DB6B1846FEF7F1FC034693
:104AD000002B0CD07B68DB6B1846FEF705FF034606
:104AE000202B04D17B6810225A6403230AE07B68E0
:104AF0000022DA857B68202283F842207B6800222E
:104B00001A63002318466837BD4680BD80B5BAB029
:104B100000AF78607B681B681B68C7F8E4307B686F
:104B20001B68DB68C7F8E0307B681B685B69C7F807
:104B3000DC300023C7F8D8300023C7F8D430D7F8CA
:104B4000E43003F00F03C7F8D830D7F8D830002B83
:104B50000FD1D7F8E43003F02003002B09D0D7F8A9
:104B6000E03003F02003002B03D0786800F022FE31
:104B700073E2D7F8D830002B00F0DE80D7F8DC30B5
:104B800003F00103002B06D1D7F8E03003F4907353
:104B9000002B00F0D180D7F8E43003F00103002BA4
:104BA0000BD0D7F8E03003F48073002B05D07B687E
:104BB0005B6C43F001027B685A64D7F8E43003F081
:104BC0000403002B0BD0D7F8DC3003F00103002BDB
:104BD00005D07B685B6C43F002027B685A64D7F8AF
:104BE000E43003F00203002B0BD0D7F8DC3003F0E5
:104BF0000103002B05D07B685B6C43F004027B68EB
:104C00005A64D7F8E43003F00803002B11D0D7F82A
:104C1000E03003F02003002B05D1D7F8DC3003F09F
:104C20000103002B05D07B685B6C43F008027B68B6
:104C30005A647B685B6C002B00F00A82D7F8E43082
:104C400003F02003002B08D0D7F8E03003F0200356
:104C5000002B02D0786800F0ADFD7B681B685B69B3
:104C600003F04003402B0CBF01230023DBB2C7F845
:104C7000D4307B685B6C03F00803002B03D1D7F8BA
:104C8000D430002B4FD0786800F0B8FC7B681B68EC
:104C90005B6903F04003402B41D17B681B681433F0
:104CA000C7F89C30D7F89C3053E8003FC7F89830DD
:104CB000D7F8983023F04003C7F8D0307B681B68E2
:104CC0001433D7F8D020C7F8A820C7F8A430D7F8F5
:104CD000A410D7F8A82041E80023C7F8A030D7F8DF
:104CE000A030002BD9D17B68DB6B002B13D07B6805
:104CF000DB6B8A4A1A657B68DB6B1846FEF748FC5B
:104D00000346002B16D07B68DB6B1B6D7A68D26B79
:104D1000104698470EE0786848F0FCFD0AE0786895
:104D200048F0F8FD06E0786848F0F4FD7B68002262
:104D30005A648DE100BF8BE17B681B6B012B40F057
:104D40006781D7F8E43003F01003002B00F0608196
:104D5000D7F8E03003F01003002B00F05981002356
:104D6000BB607B681B681B68BB607B681B685B68FB
:104D7000BB60BB687B681B685B6903F04003402B2A
:104D800040F0CE807B68DB6B1B685B68A7F8BE30A9
:104D9000B7F8BE30002B00F0A9807B689B8DB7F878
:104DA000BE209A4280F0A2807B68B7F8BE20DA85E8
:104DB0007B68DB6BDB69B3F5807F00F088807B6804
:104DC0001B680C33C7F88830D7F8883053E8003FA9
:104DD000C7F88430D7F8843023F48073C7F8B8302C
:104DE0007B681B680C33D7F8B820C7F89420C7F845
:104DF0009030D7F89010D7F8942041E80023C7F8F6
:104E00008C30D7F88C30002BD9D17B681B681433D9
:104E10007B677B6F53E8003F3B673B6F23F00103E9
:104E2000C7F8B4307B681B681433D7F8B420C7F8D0
:104E30008020FB67F96FD7F8802041E80023BB672B
:104E4000BB6F002BE1D17B681B6814333B663B6E64
:104E500053E8003FFB65FB6D23F04003C7F8B0301B
:104E60007B681B681433D7F8B020FA66BB66B96E4E
:104E7000FA6E41E800237B667B6E002BE3D17B68F2
:104E8000202283F842207B6800221A637B681B681B
:104E90000C33FB64FB6C53E8003FBB64BB6C23F03A
:104EA0001003C7F8AC307B681B680C33D7F8AC2014
:104EB000BA657B65796DBA6D41E800233B653B6D52
:104EC000002BE3D17B68DB6B1846FEF7F1FA7B68B9
:104ED00002225A637B689A8D7B68DB8D9BB2D31A62
:104EE0009BB21946786848F0F1FCB3E07B689B8D73
:104EF000B7F8BE209A4240F0AD807B68DB6BDB697F
:104F0000B3F5807F40F0A6807B6802225A637B68FD
:104F10009B8D1946786848F0D9FC9BE0C356000881
:104F20007B689A8D7B68DB8D9BB2D31AA7F8CE3055
:104F30007B68DB8D9BB2002B00F08E80B7F8CE3003
:104F4000002B00F089807B681B680C33BB63BB6B54
:104F500053E8003F7B637B6B23F49073C7F8C83042
:104F60007B681B680C33D7F8C8207A643B64396CC3
:104F70007A6C41E80023FB63FB6B002BE3D17B6879
:104F80001B6814337B627B6A53E8003F3B623B6AD9
:104F900023F00103C7F8C4307B681B681433D7F8CB
:104FA000C4203A63FB62F96A3A6B41E80023BB62B2
:104FB000BB6A002BE3D17B68202283F842207B6808
:104FC00000221A637B681B680C333B613B6953E822
:104FD000003FFB60FB6823F01003C7F8C0307B681C
:104FE0001B680C33D7F8C020FA61BB61B969FA6954
:104FF00041E800237B617B69002BE3D17B680222BF
:105000005A63B7F8CE301946786848F05FFC23E061
:10501000D7F8E43003F08003002B09D0D7F8E03054
:1050200003F08003002B03D0786800F05BFB14E0F2
:10503000D7F8E43003F04003002B0ED0D7F8E0306F
:1050400003F04003002B08D0786800F09BFB04E0DD
:1050500000BF02E000BF00E000BFE837BD4680BDF2
:1050600080B483B000AF786000BF0C37BD465DF8F8
:10507000047B704780B483B000AF786000BF0C370A
:10508000BD465DF8047B704780B590B000AF786096
:105090007B689B6BFB637B681B681B6803F48073F6
:1050A000002B37D1FB6B0022DA84FB6B1B681433B7
:1050B0007B627B6A53E8003F3B623B6A23F08003DC
:1050C000BB63FB6B1B681433BA6B3A63FB62F96A10
:1050D0003A6B41E80023BB62BB6A002BE5D1FB6B56
:1050E0001B680C333B613B6953E8003FFB60FB6886
:1050F00043F040037B63FB6B1B680C337A6BFA61F4
:10510000BB61B969FA6941E800237B617B69002BC7
:10511000E5D102E0F86B49F0BBFA00BF4037BD466D
:1051200080BD80B584B000AF78607B689B6BFB600E
:10513000F868FFF795FF00BF1037BD4680BD80B50A
:105140009CB000AF78607B689B6BFB667B681B68DC
:105150001B6803F48073002B72D1FB6E0022DA858A
:10516000FB6E1B680C33FB64FB6C53E8003FBB64B5
:10517000BB6C23F48073BB66FB6E1B680C33BA6E8A
:10518000BA657B65796DBA6D41E800233B653B6D7F
:10519000002BE5D1FB6E1B681433BB63BB6B53E87C
:1051A000003F7B637B6B23F001037B66FB6E1B6818
:1051B00014337A6E7A643B64396C7A6C41E800236C
:1051C000FB63FB6B002BE5D1FB6E1B6814337B622A
:1051D0007B6A53E8003F3B623B6A23F040033B6637
:1051E000FB6E1B6814333A6E3A63FB62F96A3A6BE2
:1051F00041E80023BB62BB6A002BE5D1FB6E202295
:1052000083F84220FB6E1B6B012B19D1FB6E1B68D0
:105210000C333B613B6953E8003FFB60FB6823F0C4
:105220001003FB65FB6E1B680C33FA6DFA61BB6102
:10523000B969FA6941E800237B617B69002BE5D1FC
:10524000FB6E00225A63FB6E1B6B012B06D1FB6EBB
:105250009B8D1946F86E48F039FB02E0F86E48F075
:105260008FFB00BF7037BD4680BD80B584B000AFF6
:1052700078607B689B6BFB60FB6801225A63FB686C
:105280001B6B012B08D1FB689B8D5B089BB21946F9
:10529000F86848F01BFB02E0F868FFF7EBFE00BF80
:1052A0001037BD4680BD80B584B000AF7860002364
:1052B000FB607B689B6BBB60BB681B685B6903F032
:1052C0008003802B0CBF01230023DBB2FB60BB6893
:1052D00093F84130DBB2212B08D1FB68002B05D0BD
:1052E000BB680022DA84B86800F060F9BB681B680C
:1052F0005B6903F04003402B0CBF01230023DBB2AA
:10530000FB60BB6893F84230DBB2222B08D1FB680C
:10531000002B05D0BB680022DA85B86800F06EF972
:10532000BB685B6C43F01002BB685A64B86848F015
:10533000F1FA00BF1037BD4680BD80B586B000AF22
:10534000F860B9603B601346FB713BE03B6AB3F128
:10535000FF3F37D0FEF7CCFC02463B68D31A3A6ACF
:105360009A4202D33B6A002B01D103233AE0FB6847
:105370001B68DB6803F00403002B23D0BB68802B81
:1053800020D0BB68402B1DD0FB681B681B6803F056
:105390000803082B16D100237B61FB681B681B6880
:1053A0007B61FB681B685B687B617B69F86800F068
:1053B00025F9FB6808225A64FB68002283F8402024
:1053C00001230FE0FB681B681A68BB681340BA68CA
:1053D0009A420CBF01230023DBB21A46FB799A42A2
:1053E000B4D0002318461837BD4680BD80B485B0C0
:1053F00000AFF860B9601346FB80FB68BA689A6238
:10540000FB68FA889A85FB68FA88DA85FB680022CF
:105410005A64FB68222283F84220FB681B69002B38
:1054200007D0FB681B68DA68FB681B6842F480726F
:10543000DA60FB681B685A69FB681B6842F001026E
:105440005A61FB681B68DA68FB681B6842F020023F
:10545000DA60002318461437BD465DF8047B7047B8
:1054600080B598B000AFF860B9601346FB80BA68A9
:10547000FB689A62FB68FA889A85FB6800225A6486
:10548000FB68222283F84220FB68DB6B444ADA6324
:10549000FB68DB6B434A1A64FB68DB6B424ADA64E5
:1054A000FB68DB6B00221A6507F10803FB65FB68EC
:1054B000D86BFB681B6804331946FB6D1A68FB88C0
:1054C000FDF79EFF0346002B08D0FB6810225A64AC
:1054D000FB68202283F8422001235DE000233B612A
:1054E000FB681B681B683B61FB681B685B683B6172
:1054F0003B69FB681B69002B19D0FB681B680C33E8
:105500003B643B6C53E8003FFB63FB6B43F48073ED
:10551000BB65FB681B680C33BA6DFA64BB64B96C7D
:10552000FA6C41E800237B647B6C002BE5D1FB68BF
:105530001B681433FB62FB6A53E8003FBB62BB6A23
:1055400043F001037B65FB681B6814337A6DBA6313
:105550007B63796BBA6B41E800233B633B6B002BA9
:10556000E5D1FB681B681433BB61BB6953E8003F9E
:105570007B617B6943F040033B65FB681B68143328
:105580003A6D7A623B62396A7A6A41E80023FB61CC
:10559000FB69002BE5D1002318466037BD4680BD6E
:1055A0003F5100086B520008A752000880B489B030
:1055B00000AF78607B681B680C33FB60FB6853E8C6
:1055C000003FBB60BB6823F0C003FB617B681B68C6
:1055D0000C33FA69BA617B617969BA6941E80023E1
:1055E0003B613B69002BE5D17B68202283F8412099
:1055F00000BF2437BD465DF8047B704780B495B08A
:1056000000AF78607B681B680C337B637B6B53E86F
:10561000003F3B633B6B23F49073FB647B681B6828
:105620000C33FA6C3A64FB63F96B3A6C41E8002383
:10563000BB63BB6B002BE5D17B681B6814333B62FB
:105640003B6A53E8003FFB61FB6923F00103BB6445
:105650007B681B681433BA6CFA62BB62B96AFA6A77
:1056600041E800237B627B6A002BE5D17B681B6BE2
:10567000012B19D17B681B680C33FB60FB6853E876
:10568000003FBB60BB6823F010037B647B681B6832
:105690000C337A6CBA617B617969BA6941E800239D
:1056A0003B613B69002BE5D17B68202283F84220D7
:1056B0007B6800221A6300BF5437BD465DF8047B47
:1056C000704780B584B000AF78607B689B6BFB60EF
:1056D000FB680022DA85F86848F01CF900BF103733
:1056E000BD4680BD80B485B000AF78607B6893F81C
:1056F0004130DBB2212B3ED17B689B68B3F5805FE4
:1057000014D17B681B69002B10D17B681B6AFB607E
:10571000FB681B881A467B681B68C2F308025A6044
:105720007B681B6A9A1C7B681A6208E07B681B6AAC
:10573000591C7A6811621A787B681B685A607B680A
:10574000DB8C9BB2013B9BB27A681946D184002B5B
:105750000FD17B681B68DA687B681B6822F08002C7
:10576000DA607B681B68DA687B681B6842F040027D
:10577000DA60002300E0022318461437BD465DF8C6
:10578000047B704780B582B000AF78607B681B688F
:10579000DA687B681B6822F04002DA607B682022AE
:1057A00083F84120786848F073FF002318460837D3
:1057B000BD4680BD80B58CB000AF78600023FB6231
:1057C0000023BB627B6893F84230DBB2222B40F0AF
:1057D000AA807B689B68B3F5805F15D17B681B69E5
:1057E000002B11D17B689B6ABB627B681B685B687E
:1057F0009BB2C3F308039AB2BB6A1A807B689B6AA8
:105800009A1C7B689A6224E07B689B6AFB627B68D7
:105810009B68B3F5805F07D07B689B68002B0AD13B
:105820007B681B69002B06D17B681B685B68DAB25A
:10583000FB6A1A7008E07B681B685B68DBB203F0E8
:105840007F03DAB2FB6A1A707B689B6A5A1C7B681A
:105850009A627B68DB8D9BB2013B9BB27A681946EA
:10586000D185002B5DD17B681B68DA687B681B687B
:1058700022F02002DA607B681B68DA687B681B68AC
:1058800022F48072DA607B681B685A697B681B6847
:1058900022F001025A617B68202283F842207B6853
:1058A00000225A637B681B6B012B35D17B68002279
:1058B0001A637B681B680C337B617B6953E8003F8C
:1058C0003B613B6923F010037B627B681B680C33F0
:1058D0007A6A3A62FB61F9693A6A41E80023BB617E
:1058E000BB69002BE5D17B681B681B6803F01003C4
:1058F000102B0AD10023FB607B681B681B68FB60D0
:105900007B681B685B68FB60FB687B689B8D194646
:10591000786847F0DBFF02E0786848F031F8002350
:1059200002E0002300E0022318463037BD4680BD68
:105930002DE9B04FC0B000AFC7F8F400D7F8F4308D
:105940001B681B6923F44050D7F8F430D968D7F8A6
:10595000F4301A6840EA01031361D7F8F4309A680A
:10596000D7F8F4301B691A43D7F8F4305B691A434F
:10597000D7F8F430DB691343C7F8F830D7F8F430C0
:105980001B68DB6823F4164121F00C01D7F8F430D2
:105990001A68D7F8F8300B43D360D7F8F4301B6897
:1059A0005B6923F44070D7F8F4309969D7F8F43084
:1059B0001A6840EA01035361D7F8F4301A688F4B34
:1059C0009A4205D0D7F8F4301A688D4B9A4204D128
:1059D000FDF73AFAC7F8FC0003E0FDF721FAC7F833
:1059E000FC00D7F8F430DB69B3F5004F40F00C81D0
:1059F000D7F8FC300022C7F8E830C7F8EC20D7E928
:105A00003A4522462B469118B9655B41FB65D7E9BB
:105A10001623214612EB0108294643EB01094FF0FA
:105A200000024FF000034FEAC90343EA58734FEAFC
:105A3000C80290469946234618EB0303C7F8E030A6
:105A40002B4649EB0303C7F8E430D7F8F4305B6822
:105A50000022C7F8D830C7F8DC20D7E936120B4649
:105A6000DB183B65134642EB03037B65D7E9142340
:105A7000D7E93801FAF7B2FE02460B46614BA3FBA9
:105A800002235B091C01D7F8FC300022C7F8D03094
:105A9000C7F8D420D7E9348942464B469118B964F7
:105AA0005B41FB64D7E91223414612EB010A4946E8
:105AB00043EB010B4FF000024FF000034FEACB0322
:105AC00043EA5A734FEACA0292469B4643461AEB90
:105AD0000303C7F8C8304B464BEB0303C7F8CC3081
